:020000041000EA
:1000000000B5324B212058609868022188439860DF
:10001000D860186158612E4B002199600221596106
:100020000121F02299502B49196001219960352056
:1000300000F044F80222904214D00621196600F024
:1000400034F8196E01211966002018661A6600F04E
:100050002CF8196E196E196E052000F02FF8012189
:100060000842F9D1002199601B49196000215960AB
:100070001A491B48016001219960EB211966A021F2
:10008000196600F012F800219960164914480160C1
:100090000121996001BC002800D000471248134993
:1000A000086003C880F30888084703B5996A0420EC
:1000B0000142FBD001200142F8D103BD02B5186610
:1000C0001866FFF7F2FF186E186E02BD00000240BE
:1000D000000000180000070000035F00212200005C
:1000E000F4000018222000A00001001008ED00E03C
:1000F00000000000000000000000000074B24E7A12
:1001000000200420F7010010C3010010C5010010F9
:10011000C1010010C1010010C1010010C101001097
:10012000C1010010C1010010C1010010C701001081
:10013000C1010010C1010010C9010010CB01001065
:10014000CD010010CD010010CD010010CD01001037
:10015000CD010010CD010010CD010010CD01001027
:10016000CD010010CD010010CD010010CD01001017
:10017000CD010010CD010010CD010010CD01001007
:10018000CD010010CD010010CD010010CD010010F7
:10019000CD010010CD010010CD010010CD010010E7
:1001A000CD010010CD010010CD010010CD010010D7
:1001B000CD010010CD010010CD010010CD010010C7
:1001C00000BE00BE00BE00BE00BE00BEEFF3058054
:1001D000103800BEF2EB8871EC7304101474041034
:1001E0003402001090A31AE700201F49086006C8D7
:1001F00081F3088810471D48006800282FD10DA4FE
:100200000ECC002902D000F012F8F9E71849194A7B
:10021000002000E001C19142FCD1174988471749ED
:1002200088471749884700BEFDE701C901C29A42C5
:10023000FBD3704714740410C00000207426002003
:10024000C89904100000042000000420C89904107C
:10025000001004200010042000000000704709482E
:1002600003F0F2FD0047000008ED00E0000000D0C0
:1002700078260020E83D0020B92B0010550300101F
:10028000772B00105756000006005250ABB3605356
:10029000F0E0001006005250861C030200E100103E
:1002A000060052505422A29D14E100100500525045
:1002B000DE65F468C8990410F8B5C0460448054BDB
:1002C00010B5834203D0044B002B00D0984710BDDB
:1002D000742600207426002000000000064807490C
:1002E000091A8B10C90FC91810B5491003D0044B57
:1002F000002B00D0984710BD7426002074260020E3
:100300000000000010B5074C2378002B09D1FFF73F
:10031000D5FF054B002B02D0044800E000BF0123AD
:10032000237010BDC82700200000000020CF00105F
:10033000054B10B5002B03D00449054800E000BF71
:10034000FFF7CCFF10BDC04600000000CC27002006
:1003500020CF001000B5ADB004F058FB06F0AAFFA6
:1003600000281AD1684600F087FA684600F096FA2D
:10037000002100230A1C684600F0C0FA0121002079
:1003800006F064FFFA2001F05DFD0021002006F078
:100390005DFFFA2001F056FDEAE7034804F02AFB6E
:1003A000012040422DB000BD20CF001010B50B49F8
:1003B0000B480AF013FB0321142000F0B9FA0321C3
:1003C000152000F0B5FA00220121142000F0C8FA2F
:1003D00000220121152000F0C3FA10BD801A06008A
:1003E000001E0020F0B583B002AF14001E003B7E5B
:1003F0001A000832D208D2006D46AA1A954602AAFF
:10040000002B0ED01470002403E0351901342D7830
:1004100015559C42F9DB0133C9B2002400940AF05F
:1004200009FB0020BD4601B0F0BD0300103383601E
:100430000023C36003747047F0B583B00400160056
:100440001D0041600A4BCB180830426806290DD8C0
:100450000627791A009100210AF070FB2662656276
:10046000089BA362099B236003B0F0BD0021F1E764
:1004700034CF0010F0B5DE4657464E464546E0B54F
:1004800085B004000D1E00D1ABE0002900DA4BE17D
:10049000436A9A00D3B29A460E266E440023337004
:1004A0000F276F443B7053469A1DD2B2F04B9846CB
:1004B000012399460093002340214046FFF792FF15
:1004C0005346DA1DD2B24B460093002340214046EA
:1004D000FFF788FF52460832D2B24B4600933300F2
:1004E00040214046FFF77EFF52460932D2B24B46CA
:1004F00000933B0040214046FFF774FF3A78317883
:10050000DC4B9A46180004F075FAA36A9A00D3B23D
:100510009B46FF233370F03B3B705B469A1DD2B283
:100520004B460093002340214046FFF75BFF5B46AC
:10053000DA1DD2B24B460093002340214046FFF71C
:1005400051FF5A460832D2B24B4600933300402145
:100550004046FFF747FF5A460932D2B24B46009356
:100560003B0040214046FFF73DFF3A783178504646
:1005700004F040FA246AA400E4B235702D123D70F4
:10058000A21DD2B24B460093002340214046FFF704
:1005900029FFE21DD2B24B46009300234021404682
:1005A000FFF720FF22000832D2B24B4600933300FF
:1005B00040214046FFF716FF0934E2B24B46009354
:1005C0003B0040214046FFF70DFF3A783178504616
:1005D00004F010FA05B0F0BCBB46B246A946A046EE
:1005E000F0BD436A9A00D3B299460E266E44FF23AB
:1005F0009B4633700F276F44F03B3B704A460632F0
:10060000D2B29B4D01218846009100233F31280042
:10061000FFF7E8FE4A460732D2B241460091002376
:100620003F312800FFF7DEFE4A460832D2B241468B
:10063000009133003F312800FFF7D4FE4A460932CB
:10064000D2B2414600913B003F312800FFF7CAFE7D
:100650003A7831788748824604F0CCF9A26A920051
:10066000D2B291465A4632700F233B704B469A1DC8
:10067000D2B243460093002340212800FFF7B2FE88
:100680004B46DA1DD2B24346009300234021280096
:10069000FFF7A8FE4A460832D2B243460093330021
:1006A00040212800FFF79EFE4A460932D2B2434657
:1006B00000933B0040212800FFF794FE3A78317800
:1006C000504604F097F9246AA400E4B20023337082
:1006D0003B70A21DD2B24346009300234021280064
:1006E000FFF780FEE21DD2B2434600930023402173
:1006F0002800FFF777FE22000832D2B2434600936B
:10070000330040212800FFF76DFE0934E2B2434672
:1007100000933B0040212800FFF764FE3A783178CF
:10072000504604F067F955E7436A9A00D3B29A46F7
:100730000E266E44FF2333700F276F44F03B3B704F
:1007400053469A1DD2B24A4B9846012399460093CC
:10075000002340214046FFF745FE5346DA1DD2B242
:100760004B460093002340214046FFF73BFE524694
:100770000832D2B24B460093330040214046FFF787
:1007800031FE52460932D2B24B4600933B00402123
:100790004046FFF727FE3A783178364B9A461800E4
:1007A00004F028F9A36A9A00D3B29B460023337061
:1007B0003B705B469A1DD2B24B460093002340210A
:1007C0004046FFF70FFE5B46DA1DD2B24B46009360
:1007D000002340214046FFF705FE5A460832D2B2B8
:1007E0004B460093330040214046FFF7FBFD5A463D
:1007F0000932D2B24B4600933B0040214046FFF7FE
:10080000F1FD3A783178504604F0F4F8246A6D42EC
:10081000A400E4B235702D123D70A21DD2B24B4639
:100820000093002340214046FFF7DCFDE21DD2B2D9
:100830004B460093002340214046FFF7D3FD2200A2
:100840000832D2B24B460093330040214046FFF7B6
:10085000C9FD0934E2B24B4600933B0040214046BB
:10086000FFF7C0FD3A783178504604F0C3F8B1E69E
:10087000001E00203CCF001010B50400FFF7D5FD8E
:1008800020002C30FFF7D1FD20005830FFF7CDFDC0
:1008900020008430FFF7C9FD200010BD30B583B0C3
:1008A0000400FE25AD05019502230093013B0022C3
:1008B0000021FFF7C1FD20002C3001950523009396
:1008C000013B03220121FFF7B7FD200058300195BD
:1008D00008230093013B06220221FFF7ADFD200013
:1008E000843001950B230093013B09220321FFF77C
:1008F000A3FDFFF75BFD03B030BD000070B5040041
:10090000FA25ED002900FFF7B5FD20002C30290065
:10091000FFF7B0FD200058302900FFF7ABFD03487A
:1009200004F038F80A2001F08DFA70BD5CCF001099
:1009300010B58300084A944663441C684022624014
:10094000C02414408022520113431C60C000034B9A
:100950009C466044416010BD04C00140004001401D
:1009600080000B4B9C46604400290DD00823002AD0
:100970000CD004221343026853400C2213408022FF
:1009800052011043036070470023F0E70022F1E7B3
:1009900004C00140002909D08000094B9C466044F6
:1009A00080239B0118430223036070478000044B9F
:1009B0009C466044C0239B01184302230360F4E774
:1009C00004C0014070B5D0231B061B689D00094C74
:1009D0002C59204207D19B002043064C18510D2072
:1009E00000F0F2F970BD044B044ACC21044802F037
:1009F000C5F8C0468C3B002078CF001040D00010D6
:100A0000A4CF001010B50400D0231B061B689B0068
:100A10000A4A9B5818420BD00D2000F0EFFAD02361
:100A20001B061B6805499B005A58A2435A5010BD2B
:100A3000034B044AD621044802F0A0F88C3B002066
:100A4000F0CF00101CD00010A4CF001007230340EB
:100A50009B00C00899403C308000014BC15070475A
:100A600000400140F8B507000C0016001D00FFF71C
:100A7000EDFFFB089B00ED18072038408000844004
:100A8000002E04D080239B011D432C60F8BDC023A1
:100A90009B011D432C60F9E710B5D0231B061B6892
:100AA000002B03D0024BFFF7DDFF10BD014BFAE72F
:100AB000304101400041014010B501238340D02264
:100AC0001206936293610521FFF732FF10BD00000B
:100AD000034B1B6802201840431E9841C0B2704768
:100AE00000C00640EFF3108072B6034B1B68002B6A
:100AF000FBD0BFF35F8F70472C0100D0BFF35F8F37
:100B0000024B00221A6080F3108870472C0100D03D
:100B1000F8B506000C001500FFF7E4FFE308F7182E
:100B2000F15C07222240012393400B4205D1DBB246
:100B30000B433B70FFF7E2FFF8BD2100280002F0F5
:100B4000B7F8F0B583B00600019114001F00FFF75D
:100B5000C9FF00E00134BC420CD8E308F518F35C8F
:100B60000721214001228A401A42F3D1D2B21A430E
:100B70002A7001E001246442FFF7C0FF002C02DB71
:100B8000200003B0F0BD019B002BF9D0089802F0C3
:100B90008FF8000070B505000C00FFF7A3FFE30815
:100BA000EE18EA5C07210C400123A340134204D055
:100BB0009A433270FFF7A2FF70BD034B034A2C31FA
:100BC000034801F0DBFFC04674D00010E0D00010F5
:100BD00094D00010002307E0054A9A189200BFF352
:100BE0005F8F0021116001331F2BF5D97047C0467C
:100BF00040000034054A1078431CDBB21370172BF9
:100C000002D9130010221A707047C046E01C002061
:100C100000B583B00100044B00931F231822034842
:100C2000FFF78FFF03B000BDF0D00010DC2D0020D7
:100C3000074B9B68103080001950BFF35F8FBFF3E4
:100C40005F8F044B0021196082F310887047C04603
:100C500000ED00E0240100D01F23181A70470000A7
:100C600010B5091A081F0A4B9C466144094A914273
:100C700008D8C30706D440104005400D064B184362
:100C800080B210BD054B064AA321064801F076FF4D
:100C9000FC070000FE0F000000E0FFFF0CD1001079
:100CA00084D300103CD1001010B5091A04394C0847
:100CB000090B08D14905490D064A11430180064B2D
:100CC0002343438010BD054B054AAB21054801F085
:100CD00055FFC04600F0FFFF00F8FFFF84D1001071
:100CE00058D300103CD1001001238340034A106800
:100CF0001840431E9841C0B27047C04600E100E072
:100D0000002904D0034B1860034B18607047034B55
:100D10001860FBE780E200E000E100E080E100E035
:100D200010B5012383401800FFF7EAFF10BD000053
:100D300001238340014A13607047C04600E200E08F
:100D4000024B9B6810308000C058704700ED00E0F7
:100D500010B5FFF7F5FF002805D0054BC01A2F2866
:100D600003D8012010BD0020FCE70020FAE7C046B0
:100D7000E41C002070B504000D00EFF3108672B67D
:100D80000C4B1B68002BFBD0BFF35F8F2000FFF7DD
:100D9000D7FF094B984201D0A84205D13200290063
:100DA0002000FFF745FF70BD044B054A862105482A
:100DB00001F0E4FE240100D0CD01001094D1001018
:100DC000B8D300103CD10010F0B5DE4657464E4671
:100DD0004546E0B589B0814601911500EFF3108AD0
:100DE00072B6744B1B68002BFBD0BFF35F8F724B46
:100DF0000027DF57002F40DB7C00E419A4006F4878
:100E000024180622A2566C4B1A706D4B9A684B46FA
:100E100010339B00D35898461E001B1A2F2B38D92D
:100E2000684B98452FD105AE674B33807B009B46BE
:100E3000D8198000614B9846404402306349FFF75F
:100E40000FFF7080624BB380FF23B371F571019B7C
:100E500007935F44BF0047440ECE0EC701231C43D7
:100E6000A046524641464846FFF7E2FE09B0F0BCB4
:100E7000BB46B246A946A046F0BD564B564AD721BE
:100E8000564801F07BFE564B534ADE21534801F091
:100E900075FEC04340440C2103F02AF8002912D10A
:100EA00001239E43B34633000026DA79AA4211D9C2
:100EB0000621595600290CDB4A00521892001E00E8
:100EC0003E4B9B18F1E7474B434AEA21434801F068
:100ED00055FE1E00002E3AD005AB434A1A80813AD7
:100EE0005A800623F3560293002B17DA3F4805ABCE
:100EF0009B469880029A9A71DD71019A0792301D83
:100F00002100FFF7ADFEB080B7717B00DB199B00BD
:100F10002A4FFF185B4607CB07C7A2E77800C01926
:100F20008000264BC0180430321DB388D90A1C2912
:100F300007D15B055915023149005118FFF790FEA2
:100F4000D5E72B4B2B4AB121244801F017FE05AE03
:100F50001D4B33807B000293D8198000174A9046BE
:100F6000020042440392901C1849FFF779FE7080FA
:100F7000039A101D5946FFF773FEB0801E4B5A4668
:100F80004146521A524153431B0DB371F571019AF8
:100F90000792029B9C466744BF0047440ECE0EC793
:100FA000114B5A461380813B538001231C43A046BA
:100FB00057E7C046240100D0DF3D0020E41C00209C
:100FC00000ED00E0CD01001000A1FFFF141D002086
:100FD00001BDFFFFCCD10010A0D300103CD1001008
:100FE000F4D100101CD200100148000001BD000027
:100FF00090D2001090D30010AAAA0000F0B5CE46FF
:10100000474680B583B006000D00EFF3108872B636
:10101000564B1B68002BFBD0BFF35F8F544B9A6875
:1010200034001034A300D758524B9F4207D0AF4230
:1010300000D198E00197504BFB1A2F2B09D942465B
:1010400039003000FFF7F4FD03B0C0BCB946B0462C
:10105000F0BD3000FFF748FE814600213000FFF769
:101060005FFEBFF35F8FEFF30581002901D08C4253
:1010700011D10123019C9C430022A368AB4212D0F2
:101080000622A256002A0DDB53009B189B0022006B
:10109000394CE418F1E73621384B394AFF313948E9
:1010A00001F06CFD2200AB4256D106256557002D9C
:1010B00038DB6B005B199A002F4B9B189A68A26073
:1010C000DA79E27106229A56A2719B795BB2002B03
:1010D0000FDA2D48A0806B005B199B00264AD318BD
:1010E0002A4A11789971157049463000FFF718FEA9
:1010F000A5E7201D6B005B199B001F4A9B181A1D5A
:101100009B88D90A1C2907D15B055B15023359005E
:101110005118FFF7A5FDDDE71D4B1E4AB121194807
:1011200001F02CFD002912D1002A0ED0FF2393716B
:10113000194B9380154A1378A371184B0E49641A02
:10114000644163431B0D1370CEE70A4FF2E7201D85
:101150001349FFF7A9FDC7E76A21124B084AFF317F
:10116000084801F00BFD034F69E7C046240100D099
:1011700000ED00E0CD010010E41C0020A8D200101A
:1011800070D300103CD1001001BD0000DF3D0020F5
:1011900090D2001090D3001001BDFFFFAAAA00005A
:1011A0001E1D0020DCD2001010B5032304009C4358
:1011B000064A9446644422681840C000FC338340C9
:1011C0009A43130081400B43236010BD00E400E00C
:1011D00070B5012101432E4BCB1A2F2B28D8EFF3EA
:1011E0000583002B2BD0EFF3108C72B6294A1268BE
:1011F000002AFBD0BFF35F8F274A0400244D641BF5
:1012000064416243120D54B2244A92689B00D25842
:101210008A421BD00022032A32D853009B189B001D
:101220001B49CB189B795BB2A3421FD00132F2E776
:10123000C7211B4B1B4A49001B4801F09FFC922110
:101240001A4B184AFF31184801F098FC134A92686B
:101250001749D150174B1A7882711C70BFF35F8FFA
:101260000C4B00221A608CF3108870BD0D005300E7
:10127000991889006918FF268E710F4A8A80E9E75C
:10128000D1210E4B074A4900074801F077FCC046C0
:10129000E41C0020240100D0AAAA000000ED00E018
:1012A000E4D200103CD300103CD100100CD300104D
:1012B000CD010010DF3D002001BDFFFF18D300105D
:1012C0000022044B02E0044902C30132072AFAD982
:1012D0007047C04600E400E08080808010B5FFF7D2
:1012E000BBFC01000148FFF755FC10BDE53D0020A7
:1012F00000B583B00100064B00930523002205488A
:10130000FFF71FFC002801DB1F23181A03B000BDE4
:1013100020D30010E53D002070B504000E0015003C
:10132000FFF768FC0100200000F006F8A680E580C9
:10133000BFF35F8F70BD0000024B9C466144890083
:10134000016070474000003410B50400FFF752FC04
:1013500001002000FFF7F0FFFF232371BFF35F8F31
:1013600010BD10B50400FFF745FC01002000FFF799
:10137000E3FFFF23237100236371BFF35F8F10BD71
:10138000034B9C46614489000160BFF35F8F704747
:101390004000003410B504000120FFF739FC0100C3
:1013A0002000FFF7EDFF10BD70B505000C00080030
:1013B00000F0D8FE0949200000F018FEFFF71AFCE3
:1013C000074B9C466044800068602C75D0231B0648
:1013D0001B786B75A400034BE55070BDED16001033
:1013E000400000347C3B00200A4B1A68EFF3108168
:1013F00072B61368002BFCD0BFF35F8F054B1B68E0
:10140000BFF35F8F00221A6081F3108840BF002075
:1014100000217047A03D002010B5002922D00368AC
:101420001B7B99421ED8174B9C4661440901836877
:101430009C4661440C684968002A19D003681B7BEC
:101440009A4215D883680F488446624412019A185C
:1014500010685368020001208B4201D80ED0002092
:10146000C0B210BD084B094A3C21094801F086FB77
:10147000054B064A3C21064801F080FBA242EFD80A
:10148000EDE7C046FFFFFF0FC0D500102CD80010BD
:101490007CD5001010B500291ED0037B99421BD8C3
:1014A0004B005B18033B0468A4466344002919D031
:1014B000002A1DD0914221D0002A25D0047BA242CF
:1014C00022D80468500080180338201881701978D9
:1014D00000291FD11A7010BD104B114A6821114804
:1014E00001F04CFB104B114A6F310E4801F046FBE6
:1014F0000F4B0E4A70210B4801F040FB0D4B0B4A7D
:101500007121084801F03AFB044B054A682105485F
:1015100001F034FB41701A70DDE7C046E4D50010DD
:1015200098D8001000D6001054D6001074D80010BF
:1015300060D600106CD6001070B506000D001400C7
:10154000002914D0002A14D08068736898470028B6
:1015500006D0220029003000FFF79CFF280007E09A
:101560002A0021003000FFF795FF200000E0100066
:1015700070BD0800FCE70000F0B583B005000092E4
:1015800001930AAB1C780BAB1F78002C26D00368A4
:101590005A7B944207D10123002B19D1002C3BD157
:1015A000200003B0F0BD002C0CD01A7B944209D867
:1015B0001A6863001B19033BD3189B78002BEBD0F0
:1015C0000123E9E73E4B3F4A68213F4801F0D6FA44
:1015D0003E4B3F4A67213F4801F0D0FA03689C7BAD
:1015E000002CDBD012D01A7B94420FD86200121963
:1015F000033A19688C46624451789973002900D1E6
:10160000D9730023937053701370C7E72C4B2D4A86
:1016100068212D4801F0B2FA002C3AD02B681B7BD0
:101620009C4236D82C4BE3181B01AA6894466344AD
:10163000009A1A60019A5A60089A9A60099ADA60C8
:101640002E68002C2BD030D0337B9C422DD86300E9
:101650001B19033B32689446634400229A705A7007
:101660001A70717B22003000FFF766FF70738442AE
:1016700000D095E7287D009A019B00F0FFFC061E34
:1016800001D0002F17D00C9B002B00D188E71E70D3
:1016900086E7124B124A3C210E4801F06FFA114BBB
:1016A000114AA521084801F069FA054B054A68214D
:1016B000054801F063FA2868210000F017FFE2E70F
:1016C000E4D5001098D8001000D6001084D6001081
:1016D000A4D800107CD50010FFFFFF0FC0D500106C
:1016E0002CD8001078D5001088D80010F0B5DE4650
:1016F00057464E464546E0B58BB009900023089307
:101700008200B54BD658370052E0B44BB44A3F2163
:10171000B44801F033FAB44BB44A3C21B44801F068
:101720002DFA002901D1002869D10021404600F09E
:10173000D3FEA04219D12A686B6806920793AB6862
:101740009846EB689A464346002B14D0002C18D0DC
:101750003B681B7B9C4214D8631EFA68D35C0893D9
:101760001B0218433861002015E0A24BA24A8E21CB
:101770009F4801F003FAA14B9F4A92219C4801F037
:10178000FDF9994B9E4A4121994801F0F7F9002350
:101790009A46984600207B68BFF35F8F00221A604C
:1017A00086F310884346002B32D1002800D10CE18B
:1017B00000F0FCFB02000B1EA7DB002000210690BE
:1017C00007917868EFF3108672B601680029FCD0A3
:1017D000BFF35F8F396888464C7B002CD7D09AD0F6
:1017E000097B8C4297D8874965182D01B9688C46CA
:1017F000654428686968801A9941002991DD2A6842
:101800006B68099800F03AFC00239A469846C2E7B4
:10181000089B1B022343994651461800C047050008
:101820000E007A68EFF3108B72B6136859424B4181
:10183000D9B2002BF9D1BFF35F8F002E1EDB002E33
:1018400046DD3B69002B47D04B456DD100F0AEFB28
:1018500002000B1E6EDB52197341002B70DB002B54
:1018600072DB0021049101310391029451460191F0
:10187000414600913800FFF77FFE4CE03B69002BAA
:10188000DDD04B4514D1069A079B521BB341002B68
:1018900014DB002B16DB002104910131039102942B
:1018A00051460191414600913800FFF765FE32E054
:1018B000554B514AA1214E4801F060F90122524294
:1018C000524BE6E7454B464A3F21464801F056F960
:1018D000002E01D1002DB4D13B68002C50D05A7B92
:1018E000944237D1012100294AD1DA7B002A4DD117
:1018F0009A7B002A03D1DA7B002A5AD19C73DC73CD
:10190000002C5CD03B681B7B9C4258D8FA68013C99
:10191000135D0133135500233B617A68BFF35F8F7A
:1019200013608BF3108843E7374B334AA4213048C8
:1019300001F024F9294B2A4A3F212A4801F01EF9D7
:1019400001225242314B8AE7244B254A3F21254848
:1019500001F014F9002C0DD01A7B94420AD86200D1
:101960001219033A1868844662449278002ABAD061
:101970000121B8E7264B274A6821274801F0FEF8E5
:10198000264B274AF621244801F0F8F8002A0AD00D
:10199000197B8A4207D851008A18033A19688C4685
:1019A00062445470A4E71A4B1A4A68211A4801F09D
:1019B000E5F81C4B1A4AFB21174801F0DFF80A4BE7
:1019C0000F4A41210A4801F0D9F80BB0F0BCBB46E0
:1019D000B246A946A046F0BD7C3B002034D400109E
:1019E000F8D7001050D40010C0D500102CD800102B
:1019F0007CD50010ACD6001010D80010C4D6001052
:101A000050D80010FFFFFF0FD0D60010FFFFFF7F60
:101A1000E4D5001098D8001000D600100CD70010A4
:101A200064D8001030D7001010B50C4B5B68002B49
:101A300004D00A210A48FFF77FFC10BD074C2300A1
:101A4000084A1021206800F057FC032000F0A2FA99
:101A500003212000FFF7A8FCEBE7C0462C1D002067
:101A6000A03D00201914001010B5064B5B68002B38
:101A700001D0044810BD044B044A5E21044801F023
:101A80007DF8C0462C1D002044D7001038D8001027
:101A90007CD50010F0B5DE4657464E464546E0B5CB
:101AA0008BB0804616001F00149B9A46159B9946E2
:101AB00016AB1B789B461F2302AA94466344002260
:101AC0001A702BE0002809D042461268127B90421F
:101AD00004D8421E4146C9688A5C41E0404B414AF5
:101AE0004121414801F04AF807984CE0361BAF41CC
:101AF000002F07DB002F11DA3C4B3D4A3F213D48C8
:101B000001F03CF8012676423B4FF3E7374B384A69
:101B10003F21384801F032F8002F4FDB43465A6826
:101B2000EFF3108472B6136859424B41D9B2079152
:101B3000002BF8D1BFF35F8F1F3302AA9446634492
:101B400004930023039302934B460193534600935F
:101B500032003B004046FFF70FFD031EB2D10200EA
:101B600041464968BFF35F8F00250D6084F31088FC
:101B7000002B29D01F2302A98C4663441B78002B1D
:101B8000B2D112021043002B20D05B46002B1DD097
:101B90004946D04704000D0003000B431DD0002927
:101BA000A4DB00F003FA06000F1EAFDB36196F410D
:101BB000002FB1DA012676420F4FADE70B4B0C4AEE
:101BC0003F210C4800F0DAFF012040420BB0F0BC8E
:101BD000BB46B246A946A046F0BD0798F6E7C04608
:101BE000C0D5001050D800107CD5001034D400109F
:101BF000F8D7001050D40010FFFFFF7FF8B50400A5
:101C00004268EFF3108572B6136858424341D8B268
:101C1000002BF9D1BFF35F8FCBB22268567BB34262
:101C20001BD10120002848D0206988422BD0090A06
:101C3000C9B2002B2ED02068007B83422AD8581EC0
:101C4000E668305C88422BD000206368BFF35F8F6A
:101C500000221A6085F31088F8BD002B0DD0167B8A
:101C6000B3420AD85E00F618033E1768BC466644C5
:101C7000B678002ED6D00120D4E7134B134A682142
:101C8000134800F07BFF9521124B134A490013487B
:101C900000F074FF124B134A4121104800F06EFF10
:101CA0001900100000F022FC0028CED132210E4B8A
:101CB000094AFF31094800F061FF23698B42C4D112
:101CC00000232361C1E7C046E4D5001098D8001076
:101CD00000D6001068D70010E0D700107CD50010A7
:101CE000C0D5001050D800108CD70010407D704730
:101CF000F0B587B006000F00EFF30583002B1FD16E
:101D000006246442E517A4197D418D4202D803D10F
:101D1000844201D900240025002D14DB049405958C
:101D200000F044F902000B1E13DBA41A9D41002DA4
:101D300017DC14D03000390000F044F907B0F0BDD2
:101D4000234800F0B5FF234B234A3F21234800F0EE
:101D500015FF204B204A3F21204800F00FFF002CA8
:101D6000E8D0FFF781FE0023029301931C4B009300
:101D7000049A059BFFF78EFE002818DADAE70023A5
:101D800000E00023002BD5D1164B1A68EFF3108129
:101D900072B61368002BFCD0BFF35F8F114B1B682A
:101DA000BFF35F8F00221A6081F3108820BF04996F
:101DB000059A0D4B5B6A9A42E3D80B48806A8842C9
:101DC00003D29A42DBD00123DCE70123DAE7C046E5
:101DD00090D7001034D40010F8D7001050D4001061
:101DE000E9130010A03D00200040054070B504003C
:101DF0000D0000F0DBF802000B1E0ADB20002900BA
:101E00008018594100290ADB00290CDBFFF770FF1D
:101E100070BD084B084A3F21084800F0AFFE012082
:101E200040420749F0E7034B034A3F21034800F0D3
:101E3000A5FEC04634D40010F8D7001050D40010CE
:101E4000FFFFFF7F10B5FA2292000023002102F06D
:101E5000E5FBFFF7CBFF10BD70B584B005000C00AB
:101E6000EFF30583002B1ED1FFF7FEFD0023029345
:101E70000193224B00932A002300FFF70BFE061E5E
:101E800023DD20BFFFF7F0FD3100FFF7B7FE1C4B4D
:101E90005B6A9C422DD81A4A926AAA422CD29C4272
:101EA00025D0012026E0164B5B6A994209D8144AD6
:101EB000926A824207D2994201D001201AE00020A2
:101EC00018E0002016E0012014E00D4B5B6A9C42F4
:101ED00009D80B4A926AAA4207D29C4201D001203B
:101EE00008E0002006E0002004E0012002E00020DD
:101EF00000E0002004B070BD0120FBE7E9130010F2
:101F00000040054070B5EFF305801038EFF3108CFA
:101F100072B61A4B1B68002BFBD0BFF35F8F0122F8
:101F20001300834016494B6316490B601649097824
:101F30000C00C440224214D0114A546A8200134D4E
:101F40005259944206D38200114C125999430E4BB8
:101F5000197007E00A4A031D9B0099589950002206
:101F600000E00022BFF35F8F044B002119608CF367
:101F70001088002A00D0904770BDC046280100D0CC
:101F8000004005403C700540E43D0020AC3D002091
:101F9000942C002010B50100024A0348FEF7B8FD5A
:101FA00010BDC046C8D80010DD3D0020044B5B6A60
:101FB000034A906A1900536A9942F9D17047C046A2
:101FC00000400540084B5B6A01E0074B5B6A8B42AF
:101FD000FBD301E0044B5B6A8B4203D1024B9B6A4B
:101FE0008342F7D37047C0460040054070B50400F7
:101FF0000D00EFF3108672B61B4B1B68002BFBD055
:10200000BFF35F8F002D1CD02000FEF799FE174B09
:1020100083420BD019002000FEF7ACFE0121200006
:10202000FEF77EFE0123A340114A1360A400114B6A
:10203000E550BFF35F8F0C4B00221A6086F31088C7
:1020400070BDA2000B4B0021D1500122A2400A49D1
:102050000B7893430B7005492000FEF7CFFF00215A
:102060002000FEF75DFEE4E7280100D0051F001008
:1020700038600540942C0020E43D0020F0B5DE4699
:1020800000B584B00400150001921E000293FFF712
:102090008DFF03958E4202D84ED185424CD9EFF385
:1020A000108B72B6274B1B68002BFBD0BFF35F8FE2
:1020B000254A17780125A540EBB23B431370234B0B
:1020C0005D63221D92000199D150A200204902981F
:1020D00050501B6A2B4212D11C4B1B6C2B4208D058
:1020E0000020BFF35F8F174B00221A608BF310881C
:1020F00023E0184B184AC521184800F03FFDFFF7B0
:1021000055FF8E4214D802D1039B834210D80E4B48
:102110001B78BB420ED00D4B1D625D631F20044037
:102120000123A3400E4A1360074B1F701E38D8E7E7
:102130000020D6E70120D4E7012004B080BCBB46D4
:10214000F0BDC046280100D0E43D0020004005401D
:10215000AC3D0020ECD800105CD9001010D9001064
:1021600080E200E0EFF3108C72B60B4B1B68002B83
:10217000FBD0BFF35F8F01238340084A13620849F5
:102180000A789A430A70BFF35F8F034B00221A60EC
:102190008CF310887047C046280100D000400540ED
:1021A000E43D002010B500291ED0037B99421BD8C6
:1021B0004B005B18033B0468A4466344002919D014
:1021C000002A1DD0914221D0002A25D0047BA242B2
:1021D00022D80468500080180338201881701978BC
:1021E00000291FD11A7010BD104B114A68211148E7
:1021F00000F0C4FC104B114A6F310E4800F0BEFCD9
:102200000F4B0E4A70210B4800F0B8FC0D4B0B4AE7
:102210007121084800F0B2FC044B054A68210548CA
:1022200000F0ACFC41701A70DDE7C046E4D5001048
:1022300070DA001000D6001054D600105CDA0010DE
:1022400060D600106CD6001070B506000D001400AA
:10225000002914D0002A14D0806873689847002899
:1022600006D0220029003000FFF79CFF280007E07D
:102270002A0021003000FFF795FF200000E0100049
:1022800070BD0800FCE7000010B500234373013364
:102290008373037BC3730123027B9A4214D9002BFF
:1022A0000CD0027B934209D85A00D218033A016835
:1022B0008C4662440133DBB25370EDE70B4B0C4AA2
:1022C00068210C4800F05AFC002A09D0924207D835
:1022D000016853009A18033A8A180023537010BDFE
:1022E000024B034A6821034800F048FCE4D5001083
:1022F00070DA001000D6001010B5017342608360E0
:10230000FFF7C2FF10BD000070B50400081E00D129
:1023100070BD002934D0237B994231D84B005B1823
:10232000033B2268944663445A78002AF0D02DD0AB
:10233000237B9A422AD853009B18033B21688C4682
:1023400063445D7800215970002825D0237B984292
:1023500022D843001B18033B21688C4663440021AC
:10236000597001002000FFF76FFF060029002000D0
:10237000FFF7CAFF020031002000FFF765FFC7E743
:10238000084B094A6821094800F0F8FB054B064A4A
:102390006821064800F0F2FB024B034A682103481B
:1023A00000F0ECFBE4D5001070DA001000D600104D
:1023B00070B505000C00160000292FD034D0037B27
:1023C000994231D84B005B18033B02689446634442
:1023D0005A78002A2ED19A78002A31D11978FFF73D
:1023E00093FF0300002E0AD0EA7B002A2ED1AA7B9D
:1023F000002A03D1EA7B002A3BD1AC73EC73002B9B
:102400003DD1002C4FD02B7B9C424CD82B686100D7
:102410000C19033C1C190023637070BD254B264A20
:102420003821264800F0AAFB254B264A6821264879
:1024300000F0A4FB254B204A3A21204800F09EFBE7
:10244000234B1D4A3B211D4800F098FB002A0AD06F
:10245000297B8A4207D851008A18033A29688C469A
:1024600062445470C3E7164B164A6821164800F0C0
:1024700085FB184B104A4221104800F07FFB002BCF
:102480000BD02A7B934208D843001B18033B2A68D1
:102490009446634400229A70B3E7094B094A6821C5
:1024A000094800F06BFB064B064A6821064800F01D
:1024B00065FBC04678D9001048DA001080D90010BA
:1024C000E4D5001070DA001000D60010C4D9001056
:1024D000ECD9001030D7001070B504000A00457B1D
:1024E0002900FFF765FF6073280070BD70B5040018
:1024F000002967D0437B8B420ED0002911D0037B8B
:1025000099420ED84B005B18033B0268D0188378C1
:10251000002B0CD1002056E00121FFF7DDFF012048
:1025200051E0294B294A6821294800F027FB002B5C
:1025300020D0227B93421DD85A00D318033B226837
:10254000D2182568EB5C8B421AD0002B1BD0227B63
:10255000934218D85A00D318033B2268D2185378F4
:102560008B4216D0002BF0D11A4B1B4A6B211B4813
:1025700000F004FB144B154A6821154800F0FEFAE0
:102580004378137007E0104B104A6821104800F0A0
:10259000F5FA4378537000238370437001222000C2
:1025A000FFF706FF0200617B814205D02000FFF7A4
:1025B0004BFE6073012006E0094B074A7121074872
:1025C00000F0DCFA002070BDE4D5001070DA0010D5
:1025D00000D6001018D3001030DA001080D9001097
:1025E00010DA001070B504000D00062000F07EF92E
:1025F000C000290001F07CFCC60908D00E4B9E42A9
:1026000017D87F23184001303500460800E0012527
:102610006562A6622C34802080010443002323607D
:10262000062000F063F98000A901891901F060FC1F
:1026300070BD0026014DEBE7FEFF0000FFFF00002C
:10264000002909D00A22064B9C4660444342584167
:102650004000044BC252704780225200F3E7C0464C
:102660000080FCBFBC3D002070B505000C000620BA
:1026700000F03CF9002829D0164B9D4227D080223B
:10268000D203154B1A60154B1A60154B9B6811004D
:102690009943FAD100212800FFF7D2FF210028003A
:1026A000FFF7A0FF2C002C34E96A60224A406E211B
:1026B000114080225201224311600A4B2B63802378
:1026C0009B01234310221A600323AB6470BD802258
:1026D0001204D6E70080034000E0004000F0004014
:1026E00000C0004001030000F8B5DE4657464E46E4
:1026F0004546E0B505000F0092460A9A93424ED334
:102700001A0E91461E020A9A00233000494601F033
:102710002DFC80466C006419A4002F4B9C46644439
:102720006368834200D260602B1FDBB29B46012BA3
:102730003BD9C0239B012343802212011A60AB00C6
:10274000264A9958002905D0506901F0D1FB013083
:102750000138FDD153465A0123685A40E0231A40FC
:1027600080235B0123431A605A46012A28D980231B
:102770009B012343802212011A6043466360424654
:1027800000233000494601F0F1FBAD00134B5851D6
:102790000120F0BCBB46B246A946A046F8BD104B8E
:1027A000104A2D21104800F0E9F9012FC1D1C023B2
:1027B0009B01234303221A60A368DB07FCD5C9E70A
:1027C0002168794003220A401A60A2680123BB40B5
:1027D0001342FAD0CBE7C04600800040E02D002035
:1027E0007CDA0010E0DA001090DA001030B583B027
:1027F0000C2000F017F9FEF76BF900280DD000232C
:1028000004E099002D4A2E4888500133092BF8D94D
:102810002A4B2C4A5A6203B030BD2B4B00229A67D8
:1028200000F072F9294B01221A60274B5B6C012BD7
:10283000FBD1274B03221A60234B9B6B012BFBD14F
:10284000013300930433234A0121234800F054F854
:1028500005230093214A0121214800F04DF8214B26
:102860000093002202210420FFF73EFF1E4D009539
:102870002B00002201210520FFF736FF104C0094A9
:102880002300002200210720FFF72EFF00942300E1
:10289000002200210820FFF727FF0A4B00932300A6
:1028A000002200210920FFF71FFF00952B000022C6
:1028B00000210620FFF718FFADE7C046E02D0020FD
:1028C000006CDC021BB70000008000403CB0004000
:1028D00030B00040002F685900800240008C8647CD
:1028E00000C00240001BB700405973078000014B35
:1028F000C0587047E02D0020F0B5C64600B5040072
:102900000D00170098460C2001F0F2FA0600394B32
:10291000FA18394B9A4241D843011B1A9901C91A36
:10292000C90009188901380001F0E2FA0200103AE2
:1029300098235B009A4237D84346013B062B39D88F
:10294000069B013B062B35D83F09B74238D3434697
:102950001E04069B1A0316432368002B36DB274B05
:102960009C4244D080225201254B1A60254B1A60AC
:10297000254B9B6811009943FAD12560A060231D67
:10298000C02292011A43212313602368002BFCDA32
:10299000E6600823136080BCB846F0BD1B4B1C4AA0
:1029A00011211C4800F0EAF81B4B194A192119485B
:1029B00000F0E4F8194B164A1C21164800F0DEF826
:1029C000174B134A2321134800F0D8F822683F23FD
:1029D0001340AB42C3D1A3681B051B0D8342BED17C
:1029E000E368EE22D2021340B342B8D1D3E780228B
:1029F0009201B9E780E84BD380F8A93200C00240C9
:102A000000E0004000F0004000C00040F0DA00109C
:102A10001CDC001050DB001098DB0010B4DB001051
:102A200000DC001080239B000343014AD3627047FF
:102A300000800540024B1A68024B5A607047C0463E
:102A40006C3B00200080054010B50200164B802032
:102A5000C0051860154B1648186000290AD0154BA0
:102A6000E021C9041960002A09D1124B8022120604
:102A70001A6010BD0C4BE021C9041960F3E7530143
:102A80009B1A9800801800010B4B186080235B0490
:102A9000984202D3084B094A1A60FFF7CBFF054B57
:102AA0008022D2051A60E4E700B00540082001400A
:102AB000FCFF010000A005406C3B0020FFFFFF0071
:102AC00010B5030010000C4A8024E4051460002BAC
:102AD0000DD001221343094A094CD461094C5C40D2
:102AE0001462516293620021FFF7AEFF10BD034BE9
:102AF0000022DA61F7E7C04600B0054000800540DB
:102B0000D3C007B02D3FF84F064BAA2212011A601E
:102B10002F22DA60044B054A1A60024B5B68002BD7
:102B2000FBDA7047004002400060024000B0FA004B
:102B300000BEFDE703000A4A1268002A08D0084ACE
:102B40001068C318074A9A4206D3054A13607047B3
:102B5000034A05491160F2E701204042F7E7C04609
:102B60006837002000000420E83D00200020704766
:102B700001204042704710B5FFF7DAFF10B582B070
:102B80000C001900002A0CD0084B002A0BD001922F
:102B9000009323000200064801F02CFF0120FFF7FC
:102BA000C7FF044BF1E7034AF1E7C04628DC0010F9
:102BB00038DC001054EF001070B52B4B2B4A1A6014
:102BC0002B4B2C4A1A602C4B9A682A4B9343FAD110
:102BD0002A4C01E008CC9847294B9C42FAD3FFF7D6
:102BE00005FE234B274A1A60234B9B68DB43DB011E
:102BF000FAD1254B40229A675A671A67DA66234C46
:102C000009E0234B234A86212348FFF7B7FF200022
:102C1000FEF79AFB0834214B9C4209D22368002B13
:102C2000F5D0012BEDD12000FEF79BFB0834F2E735
:102C30001B4CA1681B4DC022280001F077FDA56048
:102C4000EFF30583002B00D000BEFDF7C3FFFEF7B6
:102C500037FBFEF7E9FE144C01E008CC9847134B14
:102C60009C42FAD370BDC04600E00040BFCDFBFEE1
:102C700000F00040FE7F3C0000C0004058260020CD
:102C800068260020FFFFFF0100F0014050260020D1
:102C900068DC0010F4DC001088DC001058260020EE
:102CA00000ED00E0000000206826002074260020CF
:102CB0000FB400B583B0084801F06CFE049B002BF4
:102CC00007D005A90191180001F074FE034801F036
:102CD00061FE0120FFF72CFFD4DC00109CEB0010FC
:102CE00010B50148FFF7E4FFE4DC0010704710B5B1
:102CF000002802D00B684968984710BD01000020E9
:102D000007E083001B185B00501C08601078C01897
:102D100030380A681378303BDBB2092BF1D97047A1
:102D2000F0B5DE4657464E464546E0B583B093467D
:102D30001F000C9B9A460D9C0E9B99460F9B9B0770
:102D400003D0B8460F00060022E00192A346884651
:102D50004E46B9460700B44207D2551C4B46414681
:102D60002020B84701342A00F5E73D004F465C4675
:102D7000019B9B46B1464646B84637002E0007E009
:102D8000013C551C5346185D43463900B0472A00A4
:102D9000002CF5D135003E0047460F9B9B0707D41A
:102DA000100003B0F0BCBB46B246A946A046F0BD39
:102DB000B0464E46B9462F005D46531BB342EFD294
:102DC000541C4B4641462020B8472200F5E7F0B599
:102DD000CE46474680B585B0944698460C9D0D9CDE
:102DE0000EAB1B789946109A119B129EB7071CD404
:102DF000002B0CD0F7070AD54F46002F02D10C3715
:102E0000374204D0013B02E030272F550134944271
:102E100001D21F2CF8D9F70707D59C4205D21F2CE9
:102E200003D830272F550134F5E7F70615D5770578
:102E300005D4002C03D0944224D09C4222D00F9A77
:102E4000102A2BD00F9A102A30D00F9A022A35D090
:102E50001F2C02D830222A5501341F2C05D84A468F
:102E6000002A31D02D222A55013403960293019471
:102E7000009543466246FFF753FF05B0C0BCB94614
:102E8000B046F0BD621E012C06D00F9F102F01D05E
:102E90001400D4E7023CD2E71400D0E7B206D1D444
:102EA0001F2CCFD878222A550134D1E7B206CCD5D1
:102EB0001F2CCAD858222A550134C9E71F2CC7D85D
:102EC00060322A550134C3E7720703D52B222A55F5
:102ED0000134CAE73207C8D520222A550134C4E795
:102EE000F0B5DE4657464E464546E0B593B08146BE
:102EF0008A46089209931CAB10CB1B789B461E9DFB
:102F0000219B9846002C03D1102342469A439046B9
:102F10008023DB0046461E4042461A4212D0002C57
:102F200022D000260EE03033D9B2771C0AAB995577
:102F30002900200000F0DCFFAC4216D31F2F14D86C
:102F40003E0004002900200000F0D2FFCBB2092B84
:102F5000E9D94246920605D54121C918C9B20A39B4
:102F6000C9B2E2E76121F8E7270043460693209BB8
:102F700005931F9B049303955B46029301970AAB4D
:102F80000093099B089A51464846FFF720FF13B06B
:102F9000F0BCBB46B246A946A046F0BDF0B5DE4641
:102FA00057464E464546E0B595B0089009910A92BD
:102FB0000B931E9E1F9C20AB1B789B46229B994621
:102FC000239D269B9A463300234303D11033524658
:102FD0009A4392468023DB0057461F4052461A42CE
:102FE00019D0330023432DD0002714E03033DAB258
:102FF0007B1C98460CABDA554A462B00300021006A
:1030000000F0B4FFA5421FD819D043461F2B1BD890
:10301000474606000C004A462B003000210000F015
:10302000A5FFD3B2092BE1D95246920605D541221C
:10303000D218D2B20A3AD2B2DAE76122F8E7B14541
:10304000E3D901E00023984653460693259B059358
:10305000249B04934B4603935B46029343460193A0
:103060000CAB00930B9B0A9A09990898FFF7AFFEE7
:1030700015B0F0BCBB46B246A946A046F0BD000064
:10308000F0B5DE4657464E464546E0B591B083461C
:103090008A460C9298461A9C08941B9D099522001A
:1030A0002B002000290001F0DCF9002800D0E5E029
:1030B00001225242D74B2000290001F0CDF900280F
:1030C00000D0DBE001225242D34B2000290001F066
:1030D000ADF9002800D0D1E000220023089E300086
:1030E000099D290001F0A2F9002800D0DDE0089830
:1030F0000999069007918023DB001E9A1A400D92D1
:103100001E9A1A4201D106231C93069807990400BF
:103110000D000A000600024300D1D1E0080D400571
:10312000400DBE4CA44660440A03120BBC4B134333
:103130001F0001F0A9F9BB4ABB4B01F038F9BB4AAB
:10314000BB4B01F015F904000D000022B94B300013
:10315000390001F008F9B84AB84B01F028F902002B
:103160000B002000290001F003F901F0A5F98146C8
:1031700001F08AF904000D00B14AB24B01F017F9D1
:103180000022B14B01F0F4F801F096F90600AF4AC5
:10319000AF4B2000290001F00AF904000D003000B7
:1031A00001F072F9AB4AAC4B01F001F902000B00DF
:1031B0002000290001F0D7F804000D0002000B00E8
:1031C00001F0F5F80A900B91A44BF31800261F05A7
:1031D00022002B002000290001F0CAF80E900F9168
:1031E00022002B0000208021C90501F0BCF804005A
:1031F0000D0000229A4B0A980B9901F0BEF80022AC
:10320000984B01F0B5F802000B000A980B9901F0F9
:10321000B4F80022944B01F0ABF802000B000A98BE
:103220000B9901F0AAF802000B002000290001F020
:103230009FF802000B000E980F9901F09EF80022F3
:10324000774B01F095F832003B0001F0B0F8060032
:103250000F0004000D00069A079B01F0FDF80028FE
:1032600030D001235B429C46E14400227D4B30007C
:10327000390001F082F804000D0023E01E9B049346
:103280001D9B03931C9B0293089A099B0092019338
:1032900043460C9A5146584600F0FCF811B0F0BC79
:1032A000BB46B246A946A046F0BD002300240693C3
:1032B0000794069680231B069C46654407951AE7EB
:1032C000002399464B466333C62B1ED804261E9B0B
:1032D0001B0526D52B0023430FD0644A644B069868
:1032E000079901F0B1F8002879D00022614B0698C7
:1032F000079901F09BF8002871D01C9B4B4506DD17
:103300004A46981A431E1C9303E00526DFE7002374
:103310001C938023DB001E9A1A431E920026002372
:1033200099461D9B9E4264D29F1B02231E9A1A40FF
:103330000A921E9A134202D0002E00D000274B465C
:10334000002B07D022002B000698079901F015F8F2
:1033500006900791002200230898099901F066F869
:10336000002848D1444B1E9A1340049303971C9B9A
:103370000293069B079C0093019443460C9A514686
:10338000584600F087F8002E00D187E71E9B9B0669
:103390003DD54525441C4346020051462800D847E8
:1033A0004B46DA179B18534005220592013E0496BE
:1033B000002203920A3202924A46D00F01900093F3
:1033C0004346220051465846FFF78AFD0A9B002BD0
:1033D00000D163E702005F460C9E1D9D54E01C9BDC
:1033E000002B9ED00D9B002B9BD01C9B013B1C9364
:1033F00097E7002799E7069C079D22002900802077
:103400000006844661440B0006920793AAE76525EF
:10341000C0E7C046FFFFEF7FFFFFEFFF01FCFFFFAC
:103420000000F03FFB799F501344D33FB3C8608B3B
:10343000288AC63F0000F83F61436F63A787D23FE9
:1034400071A379094F930A400000E03F1655B5BBC0
:10345000B16B0240EF39FAFE422EE63FFF03000057
:1034600000002C4000002440000018402D431CEBBD
:10347000E2361A3F80842E41FFF7FFFF541C43467B
:1034800051462020B8472200931BAB42F6D31000D0
:1034900004E7C046F0B5DE4657464E464546E0B521
:1034A00095B00690079193469946209F1E9A1F9BC0
:1034B0001000190000F0D5FF002831D1012252423E
:1034C000BF4B1E981F9900F0B1FF002837D1012291
:1034D0005242BC4B1E981F9900F0BEFF00283DD100
:1034E0000022B94B1E981F9900F0B6FF002850D15A
:1034F0000022B64B1E981F9900F098FF002848D173
:10350000002200231E981F9900F090FF002850D140
:1035100000239846229B5B0500D4B6E0002458E0C7
:10352000229B0393219B029303230193A84B0093B7
:103530004B465A4607990698FFF7F2FB0EE1229B8D
:103540000393219B029304230193A24B00934B46C8
:103550005A4607990698FFF7E3FBFFE00423229AF7
:103560001A4022990B4210D09B4B002A0FD0042204
:103570002299039121990291019200934B465A4658
:1035800007990698FFF7CCFBE8E0944BEDE70322A0
:10359000EEE7229B0493219B039302971E9B1F9CA3
:1035A000009301944B465A4607990698FFF768FD29
:1035B000D4E01E9A1F9B0020002100F0D4FE1E9034
:1035C0001F9101239846A5E70CAB30221A55013F05
:1035D00001341F2C01D8092FF6D81E981F9900F02E
:1035E0006BFF050000F050FF02000B001E981F99B2
:1035F00000F0B9FEFA007A4B9B181A685B680A92D1
:103600000B9300F0D4FE0890099100F079FF0600BA
:1036100000F036FF02000B000898099900F0A3FEA5
:103620000890099100226F4B00F016FF00282ED061
:103630000136300000F024FF02000B000A980B99BD
:1036400000F0FAFE002801D001350026002F2CD111
:10365000280000F019FF02000B001E981F9900F0CF
:1036600082FE06000F0000225E4B00F0DFFE002805
:1036700046D100225B4B3000390000F0EDFE0028FF
:103680003ED1EB073CD501353AE0062746E700225C
:10369000544B0898099900F0C9FE0028D6D1002E95
:1036A00001D0F307D2D50136D0E7AA461F2C11D896
:1036B000013F0A21300000F01BFC651C30310CABCF
:1036C00019550A21300000F013FC092E0ED906000E
:1036D0002C00EBE755461F2C0CD87B1E002F09D081
:1036E0000CAA302111551F000134F4E72B00554678
:1036F0001C00F0E71F2C03D80CAB2E221A55013406
:103700001F2C10D80A21280000F0CAFB661C30319B
:103710000CAB19550A21280000F0C2FB051E01D090
:103720003400EDE734000323229A1340012B1CD010
:103730001F2C06D84346002B32D00CAB2D221A5535
:103740000134229B0393219B029301940CAB0093C1
:103750004B465A4607990698FFF7E2FA15B0F0BCB7
:10376000BB46B246A946A046F0BD219B002B13D014
:103770004346002B02D10C3313420FD0219B013B57
:103780002193190003E00CAB30221A5501348C420E
:10379000CED21F2CF7D9CBE72199F8E72199F6E78C
:1037A000229B5B0704D50CAB2B221A550134C8E7CA
:1037B000229B1B07C5D50CAB20221A550134C0E74C
:1037C000FFFFEFFFFFFFEF7F65CDCD4165CDCDC1A1
:1037D00010DD001014DD001008DD001004DD001005
:1037E00000DF00100000E03FF0B5DE4657464E46D1
:1037F0004546E0B593B082468B469046119300292A
:1038000000D1EBE200275546119B1878002800D123
:10381000E7E2252809D07C1C43463A005946A847D0
:10382000119B013311932700EEE70133119300241C
:10383000119A11780B00203BD8B2102803D88300CE
:10384000D048C3589F460B00303BDBB2092B2CD924
:103850002A292FD000230A93119B1A782E2A39D0B7
:1038600000239A46119A1378683BD9B2122976D868
:103870008B00C549CB589F4601231C43013211924E
:10388000D6E702231C4301321192D1E704231C43E3
:1038900001321192CCE708231C4301321192C7E791
:1038A00010231C4301321192C2E711A8FFF726FA38
:1038B0000A90D1E71C9B1A1D1C921868002804DB93
:1038C0000A90119B01331193C6E702231C43434224
:1038D0000A93F6E78022D20014435A1C11925A78B8
:1038E0001300303BDBB2092B04D92A2A07D000236E
:1038F0009A46B7E711A8FFF701FA8246B2E71C9B88
:103900001A1D1C921868002804DB8246119B0133A3
:103910001193A7E70020F8E780235B002343511CA5
:10392000119152786C2A01D01C0018E0C0239B0032
:103930001C430131119112E080232343511C11914A
:103940005278682A01D01C0009E0C0231C430131D1
:10395000119104E080235B001C4301321192119B02
:1039600018780300253BDAB2532A00D92CE29300E1
:10397000864AD3589F4680239B001C4301321192F4
:10398000EDE780235B001C4301321192E7E77828C2
:1039900009D0582838D06F2838D0622838D0102362
:1039A0009C430A2600E01026582833D0692803D00B
:1039B000642801D00C229443630501D5012294436D
:1039C00069282AD0642828D0A30500D59FE0E30504
:1039D00000D5B8E0630600D4CAE01C9A111D1C9102
:1039E0001168FF220A4005940A9B049353460393EF
:1039F000029600230193009243463A00594628005C
:103A0000FFF76EFA070027E01026CDE70826CBE780
:103A10000226C9E720221443C8E7A30520D4E30502
:103A200050D4630666D51C9A111D1C911168FF22A3
:103A30000A40D317D118594005940A9B0493534662
:103A400003930296D20F0192009143463A005946E1
:103A50002800FFF745FA0700119B01331193D3E6C5
:103A60001C9BDA1D07218A43110008311C91116843
:103A700053689C46DB170C930D930C9A0D9B10001A
:103A800048400E90624653400F930E980F990C9A3F
:103A90000D9B801A99410E900F9108940A9B0793F1
:103AA000534606930496002305936346DA0F029269
:103AB0000090019143463A0059462800FFF76EFAFC
:103AC0000700C9E71C9A111D1C911268D317D11861
:103AD000594005940A9B0493534603930296D20FD0
:103AE0000192009143463A0059462800FFF7F8F941
:103AF0000700B1E7230605D51C9A111D1C91002370
:103B0000D25E96E71C9A111D1C91126891E71C9BCE
:103B1000DA1D07218A43110008311C9108940A9B81
:103B20000793534606930496002305930293136864
:103B300054680093019443463A0059462800FFF721
:103B40002DFA070088E71C9A111D1C9105940A9B09
:103B50000493534603930296002301931368009342
:103B600043463A0059462800FFF7BAF9070073E7C1
:103B700023060DD51C9A111D1C9112681204120CFB
:103B800031E7C0461CDD001060DD0010ACDD001028
:103B90001C9A111D1C91126825E746281AD01C9BFF
:103BA0000733072293431A0008321C9204940A9A9E
:103BB0000392524602925C681B680093019443464C
:103BC0003A0059462800FFF765FC0700119B0133B6
:103BD000119319E620231C43E1E7672801D0472809
:103BE00002D180231B011C43452801D0472801D165
:103BF00020231C431C9B0733072293431A000832DF
:103C00001C9204940A9A0392524602925C681B68C2
:103C10000093019443463A0059462800FFF730FAD2
:103C20000700119B01331193EEE502231A00224095
:103C3000924623421FD001241C9B1A1D1C927A1C01
:103C40009146187843463A005946A8475346002BF8
:103C500016D1119B013311934F46D5E5561C4346AF
:103C600059462020B847230032005C1C9D42F5D8FD
:103C70003D001700E0E701233A002F000A9DF4E71A
:103C80004A46A9460A9D06E0571C4346594620204D
:103C9000C84734003A00661CA542F5D84D46914607
:103CA000D7E71C9B1A1D1C921B6899465346002B94
:103CB00000D1013B4E4601E0013613003278002A64
:103CC00002D05A1E002BF7D14B46F21A10928023D5
:103CD000DB0026001E401C4203D0524501D953464A
:103CE000109302231A0022400B92234205D03A007F
:103CF00037004C46A946554620E03A00109B5F46E7
:103D0000B3462E0006E0551C434639002020B0473C
:103D100023002A005C1C0A999942F4D835005E46BB
:103D2000BB46109437004C46A946554606E01D0098
:103D30000134561C43465946C847320020780028B3
:103D400004D0002FF4D06B1E002DF0D117004D468B
:103D50000B9B002B03D1119B0133119354E50A9F58
:103D6000109B06E0561C434659462020A8472300D6
:103D700032005C1C9F42F5D81700ECE721231C435E
:103D80001C9B1A1D1C921B68009305940823049326
:103D900053460393102302930023019343463A00B2
:103DA00059462800FFF79CF80700119B0133119337
:103DB0002AE57C1C43463A0059462520A847119B1A
:103DC0000133119327001FE57C1C43463A005946F6
:103DD000A847119B01331193270015E50A4B9A461A
:103DE00010E5AA46474502D343465A1E00E03A0072
:103DF000434659460020D047380013B0F0BCBB46BC
:103E0000B246A946A046F0BDED2C001000B585B025
:103E1000029003910121009313004A4202A9024833
:103E2000FFF7E2FC05B000BDEF2C001001480421B3
:103E3000014B1847601D0020693E0010014B9B6834
:103E400018470000601D002010B5010018231B88D2
:103E500014221088984710BD10B5010018231B8844
:103E600016221088984710BDF0B5C64600B5070069
:103E70000E0000250123984600E00135B5420AD224
:103E8000AC003C192068FFF7DFFF20600028F4D168
:103E900000239846F1E7404680BCB846F0BD0000DC
:103EA000124A936F9B0815D29066D166002905D0FF
:103EB000FFE7FFE7FFE7516F106F704704B5802100
:103EC0000906C2175140002800D0C84308F090FFEF
:103ED000002104BDF0B5146E556E576F166FFFF7D5
:103EE000E3FF1466556657671667F0BD000000D003
:103EF000114A936F9B0813D210665166002905D0B2
:103F0000FFE7FFE7FFE7516F106F704704B5002828
:103F100001D00020C04308F06BFF002104BDC04663
:103F2000F0B5146E556E576F166FFFF7E5FF146608
:103F3000556657671667F0BD000000D094464A4AA0
:103F4000926F9208624601D228E0C046F0B5464E14
:103F5000346E756E776F366F00F020F89446424AE3
:103F600014665566576716676246F0BD94463E4A2A
:103F7000926F9208624601D254E0C046F0B53A4EC4
:103F8000346E756E776F366F00F04CF89446364A93
:103F900014665566576716676246F0BD002B24DB32
:103FA00011D000293EDA00B5C943404200D10131A9
:103FB00000F038F8C943404200D10131DB4352429E
:103FC00000D1013300BD002AEBD1002801D1002926
:103FD00005D00020C90FC90701D1C043410800B571
:103FE00008F0C6FE0022002300BD00B500290ADB50
:103FF000DB43524200D1013300F014F8C943404280
:1040000000D1013100BDC943404200D10131DB4341
:10401000524200D1013300F005F8DB43524200D197
:10402000013300BD002923D1002B18D1002A0CD068
:10403000BC460D4F38667A6600210023FFE7FFE794
:10404000FFE77A6F386F67467047002801D007484E
:10405000010000B508F08CFE0022002300BD020024
:104060000B00002000217047000000D0FFFFFFFF81
:10407000002B00D0BFE0130C28D1002AE7D080B479
:10408000114F39667A66FFE7FFE730B4040C7B6FA7
:10409000396F1B0423433B667A66FFE7FFE7FFE7C0
:1040A000C04684B27B6F3D6F1B0423433B667A6638
:1040B000FFE7FFE7C04600232C042D0C7A6F386F12
:1040C00000196941B0BC7047000000D0F0B59446BB
:1040D0000025140E01D112020835140F01D112016E
:1040E0000435940F01D192000235D40F01D1520052
:1040F0000135D40B0134254F7C66254C3C660E0CF3
:1041000093B2FFE7FFE7FFE73C6F6643360C7703A8
:10411000BE467343DF0B5B04C01AB941130C7343F3
:10412000DB18C91ACE086643360CB64493B2734303
:104130001F0F1B01C01AB941130C73431F0B1B0542
:10414000C01AB941860D8F023E436643360C092DD5
:1041500024DB520A7243801A7703460A6643360C00
:1041600016235B1BDE40DF40BF1964466643821B9B
:104170007046043506330100D940A840C01900D369
:104180000131A24206D20023F0BD0000000000D0A1
:10419000FFFFFFFF121B0130F3D3F1E709277F1B5D
:1041A000FE406446A2B27243801A00D20139220C4A
:1041B0007243130C1204821A99410B0070460435A5
:1041C00013370100F940A840801900D30131002BBA
:1041D00002D1A2420AD2F0BD013000D30131121B3C
:1041E000FAD2013BF8D1A24200D2F0BD013000D397
:1041F0000131121BF7E7F0B51C0C00D080E00CB4C5
:1042000000251C0A04D11B02160E33431202083586
:104210001C0B04D11B01160F3343120104359C0BF8
:1042200004D19B00960F334392000235DC0B02D180
:1042300092185B4101351C00971864410134464FC8
:104240007C66464C3C660E0CFFE7FFE7FFE7C04686
:104250003C6F6643360C7703BE4697B27743C01B6C
:1042600000D20139C01B00D201399FB27743C91B6C
:10427000C91B170C77437E04FF0B801BB941CE0886
:104280006643360C0C2D33DBB644120B1F053A4344
:104290001B0B97B27743C01B00D201399FB2774303
:1042A000C91B170C77433E043F0C801BB941860D98
:1042B0008F023E43664329277F1BFE400C3D774615
:1042C000AF40BF1930BCA2B2ABB272437343801A85
:1042D0009941220C7243130C1204801A9941020076
:1042E0000B000137001BA941F9D2781E0021F0BD57
:1042F0000C277F1BFE4077467F0BAF40FF19E0E79E
:1043000000245D1C07D0144F7D663966FFE7FFE788
:10431000FFE7FFE73C6F95B29EB265436643401BE3
:10432000B141150C1E0C6543664336042F0C3E4309
:104330002D04401BB141994204D202000B00200021
:104340000021F0BD01D19042F7D3801A9941013488
:104350009942F2D3F6E70000000000D0FFFFFFFF14
:1043600048404140484018B4134B5B68019308BD76
:1043700018B4114B1B68019308BD94460F4A926F05
:10438000920805D2624618B40B4BDB68019308BD56
:104390000A4AF0B5146E556E576F166F6246FFF7F6
:1043A000F2FF064A1466556657671667F0BD18B4E3
:1043B000014B9B68019308BD9C3B0020000000D08E
:1043C000FFB550404240504059404B40594000E0FA
:1043D000FFB5154F4C00640D03D0BC4204D10C0353
:1043E00014D80020090D09055C00640D03D0BC42FF
:1043F00004D11C030AD800221B0D1B0501264B40CB
:1044000009D44B4003D58B4200D18242FFBD994273
:10441000FCD19042FFBD0B43DB1803431343F5D09F
:10442000C9434918FFBD0000FF07000000B5FFF7B2
:10443000CFFF804100BDC04600B5FFF7C9FF01D9DD
:10444000002000BD012000BD00B5FFF7B9FF01D974
:10445000002000BD012000BD00B5FFF7B1FF804185
:1044600000BD012040054A00121804D85A00121855
:1044700001D80020704701207047002070470000DD
:104480000021002805D17047C1174840401AFAD0D2
:10449000C90713B5064B1B6898470CBC441CA240C7
:1044A0001005120B0349091B09051943114310BDDF
:1044B0009C3C00201F04000010B54C00620D8023BE
:1044C000D218DB00D21A5B057E2A10DD9E3A13DA81
:1044D000CC170903490819435242D1406400013402
:1044E0001532202A05DAD0400843604310BD002071
:1044F00010BD0846604310BDC80FC018013810BD7C
:1045000018B4024B5B6A019308BD00009C3B00207D
:1045100010B50148FEF7CCFB50DF001070B5132337
:104520001C78012C14D0012C14DC022C02DC1F4A54
:104530001F4B9A641F48FFF787FC1F4B186070BD24
:1045400099001E481A4A885001331F2BF8D9EAE710
:104550000023FAE71A48FFF77FFC05001948FFF728
:104560007BFC023803789B007F2B19DD8022290019
:104570000F4800F0DBF8022CD7D1134B1A88B52373
:104580001B029A4209D1114B1A88114B9A4204D14D
:10459000104B1A88104B9A42C7D00020FEF788FBB8
:1045A0000E4B0F4A32210F48FEF7E8FAE94500109A
:1045B0009C3B00204C3300009C3C00201145001027
:1045C000534400005346000054380000D83800001F
:1045D000494600009C3800005946000068DF001082
:1045E0001CE00010C8DF001007B56046002800D1AD
:1045F00000BE01880A0A0230DF2AFAD1C9B2820855
:1046000004D3028840880004104300E00068024A96
:104610005050039007BD00009C3B00205143434392
:10462000C9188C46110C83B24B4310B4040C61437F
:1046300092B280B2504362431C041B0C001910BCA0
:1046400059411304120CC0185141614470470000D5
:1046500010B50148FEF72CFB54EF001070B5132382
:104660001E781848FFF7F8FB0500012E11D0012E27
:1046700009DDAB1E1B789B007F2B1DDD80222900EE
:10468000114800F053F81148FFF7DEFB104B18609B
:1046900070BD542201000C4800F048F8002300E0EF
:1046A00001331F2BE3D89A00074C1259002AF7D187
:1046B0009A0008481051F3E7074B084A422108487E
:1046C000FEF75CFA53460000A03C00204C3300008B
:1046D0009C3C00205146001030E00010B4E0001077
:1046E00064E0001010B5040007F07EFC002804D040
:1046F0000419034B9C4200D810BD0248FEF7D8FABB
:1047000000000420C8E0001010B507F077FC10BDD1
:1047100001480421014B1847701D0020693E00101C
:10472000014B1B6818470000701D0020014B5B689F
:1047300018470000701D002010B5FFF7D3FF10BD13
:1047400010B5FFF7E1FF10BD10B5FFF7DDFF10BD9D
:1047500010B50300080011001B68984710BD000049
:10476000F8B507000D001600437D002B02D0002491
:1047700000200CE003681100280098472DE03B7DE5
:1047800010E0022115483B689847601C0134B44290
:1047900014DA002CF3DD2B19013B1B780D3B5A4238
:1047A0005341DBB22A5D0A2AF0D1002BEED1A042A0
:1047B000E7DA211A28183B689847E2E7B04203DAA3
:1047C000311A28183B689847002E06DDAD19013DC7
:1047D0002B780D3B5A4253413B75F8BD5CE100100C
:1047E00070B505000368002B16D00C4B1C6805E063
:1047F000290004C92000FFF7B3FF2469002C09D069
:104800002368002BF9D0064B1B68002BF0D0A34285
:10481000F3D1EDE700232B6070BDC0465C3700206C
:104820006437002070B505000C000B68802B05D0A4
:1048300021684B1C23606418257170BD0800FFF7C8
:10484000CFFFF5E710B5FDF7B1FB02000B1E0BDB48
:104850000D48002112184B41002B0BDB002B0DDB08
:104860000A4808F005FB10BD094B0A4A3F210A48D7
:10487000FEF784F901225242084BEFE7044B054A48
:104880003F210548FEF77AF940420F0050260020EC
:1048900034D4001044E1001050D40010FFFFFF7F1B
:1048A00010B5024808F05CFA10BDC0465026002042
:1048B000F0B5CE46474680B583B006000D00904661
:1048C0001C00FFF7BFFF81466B1C05D0002C08D0F1
:1048D000194F1A4B1C6807E0300008F08FF80500EC
:1048E000F4E7174FF5E72469002C17D02368002B55
:1048F000F9D0144B1B68002B01D0A342F3D12A003E
:1049000031002000B8474346002BECD06B46D91D40
:104910000A230B7001222000B847E4E74B46002B26
:1049200007D16B1E9D41E8B203B0C0BCB946B0468A
:10493000F0BDFFF7B5FFF4E7514700105C370020EA
:104940006147001064370020094A01E010331A0063
:104950001368002B08D08342F8D1002907D10369DE
:1049600013600023036102E0002900D0106070474B
:104970005C37002010B5064B1C6801E0984724699D
:10498000002C03D06368002BF8D1F8E710BDC046B7
:104990005C37002070B5050008F030F804000023F3
:1049A000012201002800FFF783FFFFF7E3FF20004B
:1049B00070BD000070B5A2B004000E00FFF742FF0A
:1049C0000500002301933300220001A90848FFF7E6
:1049D0001DFA040001A8FFF703FFFFF7CBFF002D2E
:1049E00002D1200022B070BDFFF75AFFF9E7C046A0
:1049F000254800100FB400B583B004A901C9019186
:104A0000FFF7D8FF03B008BC04B0184710B500F09A
:104A1000FBF800F03FFA012010BD0000F0B583B0B4
:104A200005000E0000240FE06B46D91D0D230B700E
:104A30000020002816D193699B06FCD40B781360E4
:104A400001300131F5E70134B44219DA0D4B1A682F
:104A50002F5D0D4BD31859424B415B000B495B5EF8
:104A6000BB42E1D06B46D91D0F7000200028EAD16F
:104A700093699B06FCD40B78136001300131F5E794
:104A800003B0F0BDC03D00200080FCBFBC3D002055
:104A9000F0B583B006000F00002504E06B46073335
:104AA0001B782B702500BD4215DA174B1A689369E5
:104AB0001024210019401C420DD16C1C75196B4645
:104AC000D81D0029EAD19369DB06FCD41368037072
:104AD00001310130F5E70D4B1B68002B0CD00A4B60
:104AE0001A685023936311003431536B38221A40F3
:104AF00080235B010B431A60002D02D0280003B015
:104B0000F0BD033DFAE7C046C03D0020CC2D00209B
:104B100010B5064B1B68002B06D0054A1268002111
:104B20009163044A1068984710BDC046CC2D002000
:104B3000C03D0020D42D002070B504000E001C4B99
:104B40001B681C4A98184242504114300500002C42
:104B500003D0194A1268002A06D0002C19D0164B2F
:104B60001C60164B1E6070BD1549FCF703F901214E
:104B70002800FCF7D5F80E4B1A68502393631100F8
:104B80003431536B38221A4080235B010B431A6087
:104B9000E5E7094A1268002AE1D000229A63002161
:104BA0002800FCF7BDF806492800FCF727FAD6E7ED
:104BB000C03D00200080FCBFCC2D0020D42D002063
:104BC000114B001070B50D001C000D4B1860002A31
:104BD0000BDA002C0EDA0A4B18682900FDF744FDA9
:104BE00001210848FFF7B0FE70BD02211000FBF75D
:104BF0009FFEEEE702212000FBF79AFEEBE7C0469E
:104C0000C03D0020801D002010B5064B1B78064BD0
:104C10001B78E1210123002249020448FFF7D2FF5B
:104C200010BDC046087404100C740410004003400A
:104C300070470000014B00221A707047E03D0020D1
:104C40004B79FF2B0CD18B79002B0BD1CB79012B1E
:104C50000AD1082A0AD98A78054B1A70092000E07F
:104C6000002070470020FCE70020FAE70020F8E76A
:104C7000E03D00200120704770B504000D0003489E
:104C8000FFF7E2F803002900200098475542000092
:104C900010B5012926D1117953791B020B43124912
:104CA00009788B4201D000201DE05378012B03D0FE
:104CB000022B10D0002016E09178D3781B02194304
:104CC000DB0506D54B0A012098407F231940FFF7EA
:104CD000D3FF0020F9E7642200210020FDF7F0FE59
:104CE000012000E0012010BDE03D00200123037001
:104CF00000487047A0E1001010B50B78487800021A
:104D000018438A7812041043CB781B06034396227B
:104D1000D200934200D010BD00210800FFF7ACFF85
:104D2000024B1860024B19607047C046D02D00201E
:104D3000D82D002010B5024B1878FBF7F9FF10BDF5
:104D4000E13D002070B5124B1B68002B1BD0EFF328
:104D5000108272B619680029FCD0BFF35F8F0C492E
:104D60004A6000230B4803700968BFF35F8F0B6034
:104D700082F3108800240025074B1878FBF7D8FF32
:104D80002000290070BDFA24A4000025F4E7C046E5
:104D9000743B0020E23D0020E13D002010B584B0CE
:104DA00000212C4808F03CF8002838D12A4B1B6819
:104DB000002B3CD0EFF3108272B619680029FCD0AA
:104DC000BFF35F8F24494A6024480378012463407D
:104DD000DBB2012404700968BFF35F8F0020086014
:104DE00082F31088002B22D0FCF73EFE0400FDF772
:104DF000DDF802000B1E1CDBFA20800000211218D7
:104E00004B41002B1BDB002B1DDB012102910021FC
:104E10000191134900912000FCF73CFE07E00120BE
:104E20000021404201F000F90A4807F099FF04B060
:104E300010BD0C4B0C4A3F210C48FDF79FFE012290
:104E400052420B4BDFE7074B074A3F210748FDF76C
:104E500095FEC046A43D0020743B0020E23D0020AA
:104E6000454D001034D4001038E2001050D400102A
:104E7000FFFFFF7F10B5054B1868002804D0044BD6
:104E80001968002200F0F6FD10BDC046D02D0020AC
:104E9000D82D002010B584B0D0231B061C68FCF769
:104EA000E3FDFCF723FFA0422FD1D0231B061A7885
:104EB000334B1A70334B1B7801F09CFD3248FCF7E2
:104EC00043FA0120FCF714FAC0B2304C207030498C
:104ED000FBF750FF20780121FBF722FF0520FBF7AD
:104EE00037FF041E17D000222A490520FBF76CFF6C
:104EF000FBF780FE01002848FCF742FA0121274811
:104F0000FFF722FD200004B010BD254B254AB52136
:104F10002548FDF733FEFCF7A7FD0400FDF746F832
:104F200002000B1E1BDBFA208000002112184B41EF
:104F3000002B1ADB002B1CDB0121029100210191C7
:104F40001A4900912000FCF7A5FDC443E40F082294
:104F500000211148FFF7E4FB002CD3D0CEE7144B1F
:104F6000144A3F211448FDF709FE01225242134B17
:104F7000E0E70F4B0F4A3F210F48FDF7FFFDC0460A
:104F8000E33D002010740410A43D0020E13D00200A
:104F90009D4D0010354D0010743B0020981D0020E1
:104FA000DCD2001028E20010B8E10010454D0010DE
:104FB00034D4001038E2001050D40010FFFFFF7FFF
:104FC00010B5002001F036FA10BD000070B50500E4
:104FD0000C00FFF7F5FF002845D0002001F04CFA47
:104FE000002843D0FCF7E2FF02000B1E21DB224821
:104FF000002112184B41002B21DB002B23DB1F4823
:1050000007F036FF002834D0FFF7DAFF002804D07D
:10501000002001F031FA00281BD10120002140427C
:1050200001F002F803246442144807F099FE2000BE
:1050300070BD134B134A3F211348FDF79FFD01221A
:105040005242124BD9E70E4B0E4A3F210E48FDF754
:1050500095FD22002900002001F01AFA041EE3D178
:1050600003246442E0E703246442E0E7032464424B
:10507000DDE703246442DAE740420F00A43D00204C
:1050800034D4001038E2001050D40010FFFFFF7F2E
:10509000F0B5C64600B580460C00FCF787FF02005D
:1050A0000B1E0FDB3748002112184B41002B0FDB82
:1050B000002B11DB344807F0DBFE002812D180BC46
:1050C000B846F0BD314B324A3F213248FDF756FD1C
:1050D00001225242304BEBE72C4B2D4A3F212D4809
:1050E000FDF74CFDFFF76CFF002849D12B4B00204A
:1050F000002118605960244807F032FEDFE70120E4
:105100000021404200F090FF002001F0D5F9FFF7A8
:1051100057FF0028EFD0002001F046FA002820D0E9
:10512000A542E8DA661B002001F03EFA0200864242
:1051300000DC3200002AE2D043465919002001F079
:1051400017FA060001200021404200F06DFF002008
:1051500001F0B2F9AD19FCF729FF104B1860596046
:10516000DEE7FCF723FF0D4B1E685F680C4A002347
:1051700092197B419942BED8D2D19042D0D9BAE798
:105180000025CDE740420F00A43D002034D400109C
:1051900038E2001050D40010FFFFFF7FC02700202E
:1051A00020A1070000487047D0E200100048704777
:1051B0007CE2001010B50400154B1B78002B0ED0BC
:1051C000002C11D1134B144A5A80012301335B0088
:1051D0001BB2C022920013430E48038010BD112160
:1051E0000B4800F02DF8EBE7052C0ED8A4000B4B74
:1051F000E4580023122BE9D8E25C002AE6D0013300
:10520000590004484252DBB2F4E70020E6E7C0460A
:10521000C43D00203437002009040000E4E20010FF
:1052200010B5024800F03CF810BDC046943B002089
:1052300010B508220149FFF779FA10BD943B002010
:1052400010B5002901D000230AE0114B114A1F318B
:105250001148FDF793FC00240DE03732C2540133AE
:105260004A1E9A420FD90F2B0DD85A080B4CA25C3C
:10527000DC07F0D40424224114000F222240092A22
:10528000EBDC3032EAE7C0180023037010BDC046E3
:10529000FCE2001054E3001004E30010943B0020F3
:1052A00070B588B0040004AD0026049609220021E0
:1052B00005A8FFF735FA00960922002101A8FFF79B
:1052C0002FFA4B232B700D226946280007F040FD72
:1052D000002304E05A1D69468A5CE2540133072B1F
:1052E000F8DD08B070BD000002007F201040D20938
:1052F000400080184001014BC01870476C370020F7
:1053000010B5038B3F333F229343022915D0124C33
:105310002268C260D31823609C0610D10F4C6240F3
:10532000634080246401A3420FD88906114380237F
:105330001B0619434368196010BD5B00E7E7084B83
:10534000084A54210848FDF719FC084B054A562124
:105350000548FDF713FCC046703B002000001050CC
:10536000E8E400100CE6001018E5001078E50010E5
:10537000F8B505000E001400FFF7B6FF7F232B40A1
:10538000EF0985707A427A4142700022C27006832A
:10539000C476012F0DD0DA0012498C466244826037
:1053A000826800211160002B09D143600E4BC3605D
:1053B000F8BDDA000D498C4662448260F0E7012FA7
:1053C00009D0013BDB000A4A944663444360210054
:1053D000FFF796FFECE7013BDB00064A9446634487
:1053E0004360F4E78400105000011050800010501A
:1053F0000C0010500800105070B50C001500FFF79D
:1054000073FF2A00210000F00DF970BD10B50028CF
:1054100004D101210520FBF783FC10BDD521034BEE
:10542000034A49000348FDF7A9FBC046C0E5001048
:10543000FCE5001018E5001010B5002805D1002289
:1054400000218020FFF7D8FF10BDDB21024B034A6B
:1054500049000348FDF792FBC0E50010ECE50010A1
:1054600018E50010024B80225202DA647047C046F1
:105470000020115070B5041E26D100F0ADF8164D75
:105480000C23AB67FF2215490520FBF79DFC40224A
:1054900000211348FFF744F9002240210020FFF7C4
:1054A00067FF002240218020FFF762FF07F008FD20
:1054B00001232B6480239B05EB649023094AEA5067
:1054C0002000FFF7CFFF70BD8621074B074AFF3151
:1054D0000748FDF753FBC04600001150A506002009
:1054E0006C37002010D00100C0E5001020E600104D
:1054F00018E500100B785B0602D14B78052B00D025
:1055000070478A78014B1A60FAE7C04600001150D4
:1055100010B50C0000280DD1097963791B020B43EB
:105520005B05590DE2789207920FA078FFF720FFF4
:10553000012010BDFC21034B034AFF310348FDF756
:105540001DFBC046C0E50010DCE5001018E50010AA
:1055500010B507F0B5FC10BD10B50400080011002F
:105560001A00002C03D1FFF747FF012010BD034BA9
:10557000034A04490448FDF701FBC046C0E500109A
:10558000CCE500100A02000018E5001010B5080074
:105590004B0605D1CB09012B0AD00222054B9A6696
:1055A000FFF7A2FE80221201002107F0A1FC10BD2E
:1055B0000122F3E70020115010B508004B0600D17E
:1055C00010BDFFF791FE0023C3700022014907F0D0
:1055D0008FFCF5E7FFF7FFFF10B580235B040C4A53
:1055E00013600C4A13600C4B9A6880235B0493434E
:1055F000F9D10A4C9C2200212000FFF791F880226B
:10560000520100210648FFF78BF80923636710BD9C
:1056100000E0004000F0004000C0004000001150D9
:105620000000105070B504000D001600837E002BA2
:1056300017D1A6820023E3820133A37625612000DF
:1056400007F0A6FB002804D0094A90238021890294
:10565000D150200007F0BCFB002805D001232377A0
:1056600070BD07F035FCE4E7200007F009FCF7E720
:105670000020115070B5050000240CE063001B19D8
:10568000DA00184B1B689B18002B2AD05B68280097
:1056900098470134E4B2144B1B78A34210D3134A49
:1056A000002A0BD0A342E9D8E31ADBB2002B18D1B1
:1056B0005A00D218D2000E4B9B18E5E72300F5E7FD
:1056C0000C4C532200212000FFF72AF8E01C102286
:1056D000FF21FFF725F8200013302022FF21FFF7DC
:1056E0001FF870BD48280020DA3D0020ED4C001066
:1056F000B4E70010702B002010B5FFF7BBFF00F0DF
:10570000EFFD10BD70B505000C001600C86800F074
:10571000F1FDE368320001212800984770BD0000C8
:10572000F0B5DE4657464E46C0B582B0009001390E
:10573000C8B2FFF73BFD002800D18CE043789A46C1
:10574000022B00D089E0C5796A11013B4B491A4010
:1057500014010A781027BA4322430A70AD112B4076
:105760005B01D2B22024A24313430B70060009361A
:105770008278C478240214430419A64264D2737850
:105780000B2B09D001239B467378042B6CD1A31BF0
:105790009BB29946002525E0F3789B463378F618AE
:1057A000F2E76F007F19FB00354A1768FF182BE0FE
:1057B0002B0022E0BA68334B9A4234D1D34632E010
:1057C0002E482B00019F3A003100133001F0A0F960
:1057D000BC4666442C4B1B78AB42CED200203DE049
:1057E0000135EDB2284B1B78AB42F3D3274A002A90
:1057F000DED0AB42D5D8EB1ADBB2002B36D15F003E
:10580000FB18DB00224FFF18002F31D04A46310031
:105810000098BB68984701900828E1D98145DFD3FB
:105820005B46012BC6D000229345C9D9B3789B189B
:10583000DBB21249C918C978FF291BD10F49CB180F
:10584000DD700132D2B2EFE7124B002B14D000E032
:1058500000BF012002E0002000E0002002B0E0BC18
:10586000BB46B246A946F0BD0020F7E70020F5E7A9
:105870000020F3E70020F1E70120EFE7702B002084
:1058800048280020C5660010DA3D0020ED4C0010CD
:10589000B4E700100000000070B505000C00CB78E4
:1058A00088780F2B50D89A002E498A589746FFF7D0
:1058B00079FC020012232100280000F0D7FC44E00C
:1058C000294B002B42D000E000BF021E40D081785F
:1058D000C3781B020B432100280000F0C7FC34E012
:1058E000022B09D0214B002B34D000E000BF020076
:1058F000002A05D1002028E0FFF758FC0200F7E756
:105900009178D3781B020B432100280000F0AEFCF5
:105910001BE02379617909021943FFF74BFC021E52
:105920001AD003782100280000F0A0FC0DE0104BF5
:10593000002B13D000E000BF021E11D0037821001D
:10594000280000F093FC00E0002070BD0020FCE780
:105950000020FAE70020F8E70020F6E70020F4E74F
:105960000020F2E728E7001000000000000000001F
:1059700000000000024B5878431E9841C0B27047A7
:10598000702B0020024B18784007C00F7047C046AC
:10599000702B0020034B1878FF38431E9841C0B28B
:1059A0007047C046D41D002070B50400FFF7F2FF19
:1059B000061E01D0300070BD532200212348FEF79F
:1059C000AFFE234D2800FBF7BFFC224B1D60224D8C
:1059D00028001430FBF7DEFC280001F0EEFB1F4B23
:1059E0001D601F4B002B04D01E48FFF77FF91E4B94
:1059F000186000250BE06B005B19DA001A4B1B687E
:105A00009B18002BD6D01B6898470135EDB2154B7B
:105A10001B78AB4210D3124A002A0BD0AB42EAD813
:105A2000EB1ADBB2002BC5D15A00D218D2000F4BB3
:105A30009B18E6E72B00F5E70D4B1C702000FFF7E5
:105A400019FD2000FFF7E2FC0126B3E7702B0020D0
:105A5000282B0020C42B0020B81D0020C82B0020BC
:105A6000ED4C0010DA3D002048280020B4E700107B
:105A7000D41D0020F0B585B007000E00150001AC64
:105A80000C2200212000FEF74BFE082363700297D2
:105A900003962900200007F0E3F905B0F0BD0000EF
:105AA00070B50C00094B1D788B7870221A4201D01A
:105AB000002070BD064B9978200000F0EDFF002813
:105AC000F7D021002800FFF723FDF2E7D41D0020C6
:105AD000702B0020F8B5CE46474680B581460C00B5
