:020000041000EA
:1000000000B5324B212058609868022188439860DF
:10001000D860186158612E4B002199600221596106
:100020000121F02299502B49196001219960352056
:1000300000F044F80222904214D00621196600F024
:1000400034F8196E01211966002018661A6600F04E
:100050002CF8196E196E196E052000F02FF8012189
:100060000842F9D1002199601B49196000215960AB
:100070001A491B48016001219960EB211966A021F2
:10008000196600F012F800219960164914480160C1
:100090000121996001BC002800D000471248134993
:1000A000086003C880F30888084703B5996A0420EC
:1000B0000142FBD001200142F8D103BD02B5186610
:1000C0001866FFF7F2FF186E186E02BD00000240BE
:1000D000000000180000070000035F00212200005C
:1000E000F4000018222000A00001001008ED00E03C
:1000F00000000000000000000000000074B24E7A12
:1001000000200420F7010010C3010010C5010010F9
:10011000C1010010C1010010C1010010C101001097
:10012000C1010010C1010010C1010010C701001081
:10013000C1010010C1010010C9010010CB01001065
:10014000CD010010CD010010CD010010CD01001037
:10015000CD010010CD010010CD010010CD01001027
:10016000CD010010CD010010CD010010CD01001017
:10017000CD010010CD010010CD010010CD01001007
:10018000CD010010CD010010CD010010CD010010F7
:10019000CD010010CD010010CD010010CD010010E7
:1001A000CD010010CD010010CD010010CD010010D7
:1001B000CD010010CD010010CD010010CD010010C7
:1001C00000BE00BE00BE00BE00BE00BEEFF3058054
:1001D000103800BEF2EB8871FC95041024960410D0
:1001E0003402001090A31AE700201F49086006C8D7
:1001F00081F3088810471D48006800282FD10DA4FE
:100200000ECC002902D000F012F8F9E71849194A7B
:10021000002000E001C19142FCD1174988471749ED
:1002200088471749884700BEFDE701C901C29A42C5
:10023000FBD3704724960410C000002088260020BD
:10024000ECBB04100000042000000420ECBB0410F0
:10025000001004200010042000000000704709482E
:1002600003F026FF0047000008ED00E0000000D08A
:100270008826002004410220212E00105503001082
:10028000DF2D00105756000006005250ABB36053EC
:10029000C0FB001006005250861C0302D0FB001069
:1002A000060052505422A29DE4FB0010050052505B
:1002B000DE65F468ECBB0410F8B5C0460448054B95
:1002C00010B5834203D0044B002B00D0984710BDDB
:1002D00088260020882600200000000006480749E4
:1002E000091A8B10C90FC91810B5491003D0044B57
:1002F000002B00D0984710BD8826002088260020BB
:100300000000000010B5074C2378002B09D1FFF73F
:10031000D5FF054B002B02D0044800E000BF0123AD
:10032000237010BDE02700200000000028E9001025
:10033000054B10B5002B03D00449054800E000BF71
:10034000FFF7CCFF10BDC04600000000E4270020EE
:1003500028E9001000B5ABB004F0C4FE07F016FBAE
:10036000002821D1012103A800F03CFB03A800F0E4
:1003700059FB0021002300930B1C0A1C03A800F06A
:1003800083FBFA20800001F091FE0121002007F09C
:10039000C9FAFA2001F08AFE0021002007F0C2FA13
:1003A000FA2001F083FEF0E7034804F08FFE0120FD
:1003B00040422BB000BDC04628E90010F0B585B022
:1003C00004001E000AAB1F780F236B441A70002F25
:1003D00002D1002005B0F0BDCDB2012300930F2261
:1003E0006A4429000AF002FF002300933B00320018
:1003F000290020000AF006FFECE7F0B583B002AF59
:1004000014001E003B7E1A000832D208D2006D464E
:10041000AA1A954602AA002B0ED01470002403E0FD
:10042000351901342D7815559C42F9DB0133C9B2D9
:10043000002400940AF0DAFE0020BD4601B0F0BDB1
:1004400010B582B0104C114920000AF0A3FE032120
:10045000142000F0A9FB0321152000F0A5FB0022C9
:100460000121142000F0B8FB00220121152000F02A
:10047000B3FB012300930023002240212000FFF75B
:10048000BCFF02B010BDC046001E0020A0860100C7
:1004900070B584B0234C012500950F236B440022D6
:1004A00040212000FFF78AFF6B46DB7B6F221A405A
:1004B00010231A43D2B20E236B441A7003AE0021EC
:1004C000317072700095002240312000FFF795FFD7
:1004D0000B236B4479221A7000958532402120004D
:1004E000FFF78BFF00950F236B4400224021200073
:1004F000FFF783FFFA204000002101F0ABFD6B46BF
:10050000DA7B80235B421343737000950F236B44A7
:10051000002240212000FFF770FF034804F0D6FDC1
:1005200004B070BD001E00203CE900100300103331
:1005300083600023C360037470470000F0B5C646B3
:1005400000B584B004000D008168B34804F0BEFD1E
:10055000002D00D19AE000DAC8E02123E75CBF005B
:10056000FFB200236A469373D373BA1DD2B2AB4E67
:10057000013398460093002340213000FFF73DFFF0
:10058000FA1DD2B243460093002340213000FFF70A
:1005900034FF3A000832D2B2434600930D336B4425
:1005A00040213000FFF729FF0937FAB24346009394
:1005B0000E336B4440213000FFF71FFF2223E75C1E
:1005C000BF00FFB2DD336A469373F03BD373BA1DAD
:1005D000D2B243460093002340213000FFF70DFFC5
:1005E000FA1DD2B243460093002340213000FFF7AA
:1005F00004FF3A000832D2B2434600930D336B44F5
:1006000040213000FFF7F9FE0937FAB24346009364
:100610000E336B4440213000FFF7EFFE2023E45CF3
:100620002803401B642103F06FFDA400E4B26B4675
:1006300098730012D873A21DD2B2434600930023D0
:1006400040213000FFF7D9FEE21DD2B243460093AD
:10065000002340213000FFF7D0FE22000832D2B242
:10066000434600930D336B4440213000FFF7C5FE35
:100670000934E2B2434600930E336B44402130000C
:10068000FFF7BBFE04B080BCB846F0BD2023E45C9D
:10069000A400E4B2123B6B44984600234246137018
:1006A0000F276F443B70A21DD2B25C4D012600960D
:1006B00040212800FFF7A1FEE21DD2B200960023E0
:1006C00040212800FFF799FE22000832D2B200969E
:1006D000434640212800FFF790FE0934E2B200961D
:1006E0003B0040212800FFF788FECBE72123E65C92
:1006F000B600F6B2DE336A469373F03BD373B21D95
:10070000D2B2464F0E3B984600930023402138005A
:10071000FFF773FEF21DD2B243460093002340213F
:100720003800FFF76AFE32000832D2B24346009327
:100730000D336B4440213800FFF75FFE0936F2B2FB
:10074000434600930E336B4440213800FFF755FEBB
:100750002223E65CB600F6B200236A469373D37395
:10076000B21DD2B243460093002340213800FFF768
:1007700044FEF21DD2B243460093002340213800CC
:10078000FFF73BFE32000832D2B2434600930D33EE
:100790006B4440213800FFF730FE0936F2B2434681
:1007A00000930E336B4440213800FFF726FE2023D0
:1007B000E45C2803281A642103F0A6FCA400E4B238
:1007C0006B4698730012D873A21DD2B243460093B1
:1007D000002340213800FFF710FEE21DD2B243464D
:1007E0000093002340213800FFF707FE2200083263
:1007F000D2B2434600930D336B4440213800FFF7DB
:10080000FCFD0934E2B2434600930E336B444021B1
:100810003800FFF7F2FD35E75CE90010001E00200C
:10082000F8B5070014004E1E11E06421200003F00B
:1008300093FC4D006421200003F08EFC04006A1C30
:100840000A4B9A5CBA55721E5B5DBB54023E632C28
:10085000EBD8092C07D96400621C044B9A5C7A70AF
:100860001B5D3B70F8BD30343C70FBE780E9001045
:10087000F0B5DE4657464E464546E0B591B0050018
:100880000E00904699461AAB1B789A464160CF0FEE
:10089000002913DB30000124092812D963280FD95D
:1008A000FA239B00984200D272E04B4B984200D84A
:1008B00070E04A4903F050FC0434EDE74E42E9E7AA
:1008C000013439190CAB0A932D220AA80BF0B2FDA2
:1008D0000A9BD81932002100FFF7A2FF0B9A002AC9
:1008E00000D00022062300933D4B00210AA80BF004
:1008F0001FFE040006AB0493036806000836B342EB
:100900004AD00493836806936368059326600023A6
:10091000636023722C000834A8682A0010320499FE
:1009200006AB99423ED0904251D0A3689B46A96045
:10093000059B03936360069BA360002849D0049045
:100940005B46069300230593049A1370049806AB44
:10095000984203D0069B591C04F062FA0A980CAB2B
:10096000984203D00C9B591C04F05AFA20234246AB
:10097000EA5401334A46EA5401335246EA541B9B77
:100980002B6011B0F0BCBB46B246A946A046F0BDF4
:10099000023496E7033494E71022310006A804F0ED
:1009A00031FAB1E7059A002A07D1059B6360AA686E
:1009B0009446634400221A70C4E7012A04D0002A36
:1009C000F3D004F01FFAF0E70B780370EDE7002096
:1009D000ADE706AB0493B5E70F2700001027000032
:1009E00078E9001070B504000D00FFF79FFD2000AE
:1009F0002430FFF79BFD20004830FFF797FD2000D3
:100A00006C30FFF793FD9023044AE2500433044A0C
:100A1000E2500433E554200070BDC0460000A04001
:100A20000000204130B583B00400FE25AD050195DE
:100A300002230093013B00220021FFF719FF200051
:100A40002430019505230093013B03220121FFF788
:100A50000FFF20004830019508230093013B062238
:100A60000221FFF705FF20006C3001950B23009356
:100A7000013B09220321FFF7FBFEFFF7E1FCFFF733
:100A800007FD03B030BD0000F0B5D6464F464646E0
:100A9000C0B584B080460D1C141C9946101C04F08F
:100AA00025F904F017F906000F00291C281C04F092
:100AB000AAF8051C211C201C04F0A5F8011C281C08
:100AC00004F08AF804F00CF9824604F003F90400FB
:100AD0000D003149504604F0C5F8002801D000242B
:100AE0002E4D2F4A2F4B3000390003F075FD03F0D7
:100AF0005DFE22002B0003F08EFD0290039148461C
:100B000004F0E8F802000B000092019302980399A8
:100B100003F05DFD03F038FE8246214A214B300090
:100B2000390003F054FD03F041FE22002B0003F0D6
:100B300072FD009A019B03F04AFD03F025FE8146F9
:100B40003000390003F032FE22002B0003F063FD79
:100B5000009A019B03F03BFD03F016FE041C504677
:100B600004F085F801004046FFF7E8FC484604F031
:100B70007EF8010040462430FFF7E0FC201C04F022
:100B800076F8010040464830FFF7D8FC04B0E0BCDE
:100B9000BA46B146A846F0BD0000C8420000594020
:100BA00065732D3852C1004010B58300084A944641
:100BB00063441C6840226240C024144080225201D9
:100BC00013431C60C000034B9C466044416010BD51
:100BD00004C001400040014080000B4B9C46604433
:100BE00000290DD00823002A0CD0042213430268E8
:100BF00053400C221340802252011043036070477F
:100C00000023F0E70022F1E704C00140002909D0E9
:100C10008000094B9C46604480239B0118430223BB
:100C2000036070478000044B9C466044C0239B01D6
:100C3000184302230360F4E704C0014070B5D023D9
:100C40001B061B689D00094C2C59204207D19B00B4
:100C50002043064C18510D2000F0F2F970BD044BF2
:100C6000044ACC21044802F0BDF8C046383E0020BA
:100C70004CEA001014EB001078EA001010B50400E4
:100C8000D0231B061B689B000A4A9B5818420BD0B6
:100C90000D2000F0EFFAD0231B061B6805499B00CE
:100CA0005A58A2435A5010BD034B044AD621044857
:100CB00002F098F8383E0020C4EA0010F0EA001074
:100CC00078EA0010072303409B00C00899403C309D
:100CD0008000014BC150704700400140F8B507004B
:100CE0000C0016001D00FFF7EDFFFB089B00ED1840
:100CF0000720384080008440002E04D080239B01D0
:100D00001D432C60F8BDC0239B011D432C60F9E7F7
:100D100010B5D0231B061B68002B03D0024BFFF736
:100D2000DDFF10BD014BFAE73041014000410140B9
:100D300010B501238340D0221206936293610521EE
:100D4000FFF732FF10BD0000034B1B680220184064
:100D5000431E9841C0B2704700C00640EFF31080B8
:100D600072B6034B1B68002BFBD0BFF35F8F70473D
:100D70002C0100D0BFF35F8F024B00221A6080F37A
:100D8000108870472C0100D0F8B506000C00150043
:100D9000FFF7E4FFE308F718F15C07222240012384
:100DA00093400B4205D1DBB20B433B70FFF7E2FFF0
:100DB000F8BD2100280002F0AFF8F0B583B00600BE
:100DC000019114001F00FFF7C9FF00E00134BC428D
:100DD0000CD8E308F518F35C0721214001228A4072
:100DE0001A42F3D1D2B21A432A7001E001246442BC
:100DF000FFF7C0FF002C02DB200003B0F0BD019B19
:100E0000002BF9D0089802F087F8000070B50500B3
:100E10000C00FFF7A3FFE308EE18EA5C07210C4083
:100E20000123A340134204D09A433270FFF7A2FF7C
:100E300070BD034B034A2C31034801F0D3FFC04679
:100E400048EB0010B4EB001068EB0010002307E043
:100E5000054A9A189200BFF35F8F00211160013399
:100E60001F2BF5D97047C04640000034054A107862
:100E7000431CDBB21370172B02D9130010221A7017
:100E80007047C046E81C002000B583B00100044B49
:100E900000931F2318220348FFF78FFF03B000BD04
:100EA000C4EB0010F42D0020074B9B68103080002D
:100EB0001950BFF35F8FBFF35F8F044B00211960A0
:100EC00082F310887047C04600ED00E0240100D096
:100ED0001F23181A7047000010B5091A081F0A4B83
:100EE0009C466144094A914208D8C30706D4401081
:100EF0004005400D064B184380B210BD054B064A15
:100F0000A321064801F06EFFFC070000FE0F000061
:100F100000E0FFFFE0EB001058EE001010EC0010B6
:100F200010B5091A04394C08090B08D14905490DB7
:100F3000064A11430180064B2343438010BD054BF5
:100F4000054AAB21054801F04DFFC04600F0FFFF08
:100F500000F8FFFF58EC00102CEE001010EC001011
:100F600001238340034A10681840431E9841C0B2D1
:100F70007047C04600E100E0002904D0034B186030
:100F8000034B18607047034B1860FBE780E200E0FA
:100F900000E100E080E100E010B50123834018008B
:100FA000FFF7EAFF10BD000001238340014A1360F0
:100FB0007047C04600E200E0024B9B6810308000A2
:100FC000C058704700ED00E010B5FFF7F5FF0028AE
:100FD00005D0054BC01A2F2803D8012010BD0020D2
:100FE000FCE70020FAE7C046EC1C002070B50400C6
:100FF0000D00EFF3108672B60C4B1B68002BFBD074
:10100000BFF35F8F2000FFF7D7FF094B984201D055
:10101000A84205D1320029002000FFF745FF70BD2E
:10102000044B054A8621054801F0DCFE240100D06E
:10103000CD01001068EC00108CEE001010EC0010D8
:10104000F0B5DE4657464E464546E0B589B0814686
:1010500001911500EFF3108A72B6744B1B68002BD8
:10106000FBD0BFF35F8F724B0027DF57002F40DBB1
:101070007C00E419A4006F4824180622A2566C4B89
:101080001A706D4B9A684B4610339B00D3589846A4
:101090001E001B1A2F2B38D9684B98452FD105AE4F
:1010A000674B33807B009B46D8198000614B984684
:1010B000404402306349FFF70FFF7080624BB380FA
:1010C000FF23B371F571019B07935F44BF00474451
:1010D0000ECE0EC701231C43A04652464146484649
:1010E000FFF7E2FE09B0F0BCBB46B246A946A046F7
:1010F000F0BD564B564AD721564801F073FE564B69
:10110000534ADE21534801F06DFEC04340440C2198
:1011100003F022F8002912D101239E43B346330085
:101120000026DA79AA4211D90621595600290CDB8A
:101130004A00521892001E003E4B9B18F1E7474BA5
:10114000434AEA21434801F04DFE1E00002E3AD0EA
:1011500005AB434A1A80813A5A800623F35602931C
:10116000002B17DA3F4805AB9B469880029A9A718C
:10117000DD71019A0792301D2100FFF7ADFEB080AE
:10118000B7717B00DB199B002A4FFF185B4607CB2A
:1011900007C7A2E77800C0198000264BC0180430AA
:1011A000321DB388D90A1C2907D15B0559150231B4
:1011B00049005118FFF790FED5E72B4B2B4AB12180
:1011C000244801F00FFE05AE1D4B33807B000293D7
:1011D000D8198000174A9046020042440392901C9E
:1011E0001849FFF779FE7080039A101D5946FFF7E2
:1011F00073FEB0801E4B5A464146521A5241534329
:101200001B0DB371F571019A0792029B9C466744CE
:10121000BF0047440ECE0EC7114B5A461380813B88
:10122000538001231C43A04657E7C046240100D049
:10123000FD400220EC1C002000ED00E0CD0100107C
:1012400000A1FFFF1C1D002001BDFFFFA0EC00104E
:1012500074EE001010EC0010C8EC0010F0EC001060
:101260000148000001BD000064ED001064EE0010B4
:10127000AAAA0000F0B5CE46474680B583B0060066
:101280000D00EFF3108872B6564B1B68002BFBD095
:10129000BFF35F8F544B9A6834001034A300D758C3
:1012A000524B9F4207D0AF4200D198E00197504B7C
:1012B000FB1A2F2B09D9424639003000FFF7F4FD05
:1012C00003B0C0BCB946B046F0BD3000FFF748FEE1
:1012D000814600213000FFF75FFEBFF35F8FEFF321
:1012E0000581002901D08C4211D10123019C9C432E
:1012F0000022A368AB4212D00622A256002A0DDBC0
:1013000053009B189B002200394CE418F1E736216A
:10131000384B394AFF31394801F064FD2200AB42B5
:1013200056D106256557002D38DB6B005B199A00F6
:101330002F4B9B189A68A260DA79E27106229A56BE
:10134000A2719B795BB2002B0FDA2D48A0806B0055
:101350005B199B00264AD3182A4A11789971157097
:1013600049463000FFF718FEA5E7201D6B005B190A
:101370009B001F4A9B181A1D9B88D90A1C2907D15C
:101380005B055B15023359005118FFF7A5FDDDE73A
:101390001D4B1E4AB121194801F024FD002912D12C
:1013A000002A0ED0FF239371194B9380154A1378AE
:1013B000A371184B0E49641A644163431B0D1370EB
:1013C000CEE70A4FF2E7201D1349FFF7A9FDC7E753
:1013D0006A21124B084AFF31084801F003FD034F10
:1013E00069E7C046240100D000ED00E0CD01001007
:1013F000EC1C00207CED001044EE001010EC0010FE
:1014000001BD0000FD40022064ED001064EE0010FC
:1014100001BDFFFFAAAA0000261D0020B0ED0010AC
:1014200010B5032304009C43064A94466444226892
:101430001840C000FC3383409A43130081400B43A3
:10144000236010BD00E400E070B5012101432E4B84
:10145000CB1A2F2B28D8EFF30583002B2BD0EFF3DB
:10146000108C72B6294A1268002AFBD0BFF35F8F36
:10147000274A0400244D641B64416243120D54B298
:10148000244A92689B00D2588A421BD00022032A29
:1014900032D853009B189B001B49CB189B795BB239
:1014A000A3421FD00132F2E7C7211B4B1B4A490060
:1014B0001B4801F097FC92211A4B184AFF3118483B
:1014C00001F090FC134A92681749D150174B1A78D3
:1014D00082711C70BFF35F8F0C4B00221A608CF37B
:1014E000108870BD0D005300991889006918FF26F7
:1014F0008E710F4A8A80E9E7D1210E4B074A4900D5
:10150000074801F06FFCC046EC1C0020240100D00D
:10151000AAAA000000ED00E0B8ED001010EE0010E7
:1015200010EC0010E0ED0010CD010010FD40022095
:1015300001BDFFFFECED00100022044B02E0044966
:1015400002C30132072AFAD97047C04600E400E01E
:101550008080808010B5FFF7BBFC01000148FFF7D9
:1015600055FC10BD0341022000B583B00100064BBD
:101570000093052300220548FFF71FFC002801DB2C
:101580001F23181A03B000BDF4ED00100341022020
:1015900070B504000E001500FFF768FC0100200084
:1015A00000F006F8A680E580BFF35F8F70BD0000F5
:1015B000024B9C4661448900016070474000003442
:1015C00010B50400FFF752FC01002000FFF7F0FF08
:1015D00001235B426360BFF35F8F10BD10B5040051
:1015E000FFF744FC01002000FFF7E2FF01235B420C
:1015F000636000232372BFF35F8F10BD034B9C46D3
:10160000614489000160BFF35F8F70474000003480
:1016100010B504000120FFF737FC01002000FFF7A0
:10162000EDFF10BD70B505000C00080000F0CEFE07
:101630000949200000F00EFEFFF718FC074B9C46FE
:101640006044800068602C75D0231B061B786B7586
:10165000A400034BE55070BD611900104000003438
:10166000943B002010B5084B1A68EFF3108172B656
:101670001368002BFCD0BFF35F8F034809F0D8FE3E
:101680000020002110BDC0464C40002010B50029AC
:1016900022D003681B7B99421ED8174B9C4661449D
:1016A000090183689C4661440C684968002A19D086
:1016B00003681B7B9A4215D883680F4884466244AE
:1016C00012019A1810685368020001208B4201D859
:1016D0000ED00020C0B210BD084B094A3C21094879
:1016E00001F080FB054B064A3C21064801F07AFBDD
:1016F000A242EFD8EDE7C046FFFFFF0F94F00010C5
:1017000000F3001050F0001010B500291ED0037B2C
:1017100099421BD84B005B18033B0468A446634402
:10172000002919D0002A1DD0914221D0002A25D0AD
:10173000047BA24222D80468500080180338201885
:101740008170197800291FD11A7010BD104B114AF1
:101750006821114801F046FB104B114A6F310E48C9
:1017600001F040FB0F4B0E4A70210B4801F03AFB91
:101770000D4B0B4A7121084801F034FB044B054A1C
:101780006821054801F02EFB41701A70DDE7C04664
:10179000B8F000106CF30010D4F0001028F1001025
:1017A00048F3001034F1001040F1001070B506004D
:1017B0000D001400002914D0002A14D0806873682A
:1017C0009847002806D0220029003000FFF79CFF30
:1017D000280007E02A0021003000FFF795FF2000D5
:1017E00000E0100070BD0800FCE70000F0B583B019
:1017F0000500009201930AAB1C780BAB1F78002CFC
:1018000026D003685A7B944207D10123002B19D1BB
:10181000002C3BD1200003B0F0BD002C0CD01A7B73
:10182000944209D81A6863001B19033BD3189B78AC
:10183000002BEBD00123E9E73E4B3F4A68213F48AC
:1018400001F0D0FA3E4B3F4A67213F4801F0CAFA07
:1018500003689C7B002CDBD012D01A7B94420FD8FB
:1018600062001219033A19688C46624451789973E0
:10187000002900D1D9730023937053701370C7E708
:101880002C4B2D4A68212D4801F0ACFA002C3AD09F
:101890002B681B7B9C4236D82C4BE3181B01AA6893
:1018A00094466344009A1A60019A5A60089A9A60B2
:1018B000099ADA602E68002C2BD030D0337B9C4202
:1018C0002DD863001B19033B326894466344002201
:1018D0009A705A701A70717B22003000FFF766FF11
:1018E0007073844200D095E7287D009A019B00F038
:1018F000F9FC061E01D0002F17D00C9B002B00D145
:1019000088E71E7086E7124B124A3C210E4801F010
:1019100069FA114B114AA521084801F063FA054BF9
:10192000054A6821054801F05DFA2868210000F0A9
:1019300011FFE2E7B8F000106CF30010D4F00010D3
:1019400058F1001078F3001050F00010FFFFFF0F67
:1019500094F0001000F300104CF000105CF3001045
:10196000F0B5DE4657464E464546E0B58BB0099089
:10197000002308938200B54BD658370052E0B44B91
:10198000B44A3F21B44801F02DFAB44BB44A3C218B
:10199000B44801F027FA002901D1002869D10021BB
:1019A000404600F0CDFEA04219D12A686B6806922D
:1019B0000793AB689846EB689A464346002B14D0D1
:1019C000002C18D03B681B7B9C4214D8631EFA681D
:1019D000D35C08931B0218433861002015E0A24B2A
:1019E000A24A8E219F4801F0FDF9A14B9F4A922106
:1019F0009C4801F0F7F9994B9E4A4121994801F022
:101A0000F1F900239A46984600207B68BFF35F8F68
:101A100000221A6086F310884346002B32D100283A
:101A200000D10CE100F0F6FB02000B1EA7DB00204A
:101A30000021069007917868EFF3108672B601686E
:101A40000029FCD0BFF35F8F396888464C7B002C9F
:101A5000D7D09AD0097B8C4297D8874965182D0139
:101A6000B9688C46654428686968801A99410029DC
:101A700091DD2A686B68099800F034FC00239A46CF
:101A80009846C2E7089B1B0223439946514618001B
:101A9000C04705000E007A68EFF3108B72B613682A
:101AA00059424B41D9B2002BF9D1BFF35F8F002EC1
:101AB0001EDB002E46DD3B69002B47D04B456DD128
:101AC00000F0A8FB02000B1E6EDB52197341002BC5
:101AD00070DB002B72DB0021049101310391029431
:101AE00051460191414600913800FFF77FFE4CE0DE
:101AF0003B69002BDDD04B4514D1069A079B521B46
:101B0000B341002B14DB002B16DB002104910131C3
:101B10000391029451460191414600913800FFF72C
:101B200065FE32E0554B514AA1214E4801F05AF969
:101B300001225242524BE6E7454B464A3F21464876
:101B400001F050F9002E01D1002DB4D13B68002CDA
:101B500050D05A7B944237D1012100294AD1DA7BF7
:101B6000002A4DD19A7B002A03D1DA7B002A5AD170
:101B70009C73DC73002C5CD03B681B7B9C4258D868
:101B8000FA68013C135D0133135500233B617A6809
:101B9000BFF35F8F13608BF3108843E7374B334AF3
:101BA000A421304801F01EF9294B2A4A3F212A4836
:101BB00001F018F901225242314B8AE7244B254AA1
:101BC0003F21254801F00EF9002C0DD01A7B9442DC
:101BD0000AD862001219033A18688446624492785F
:101BE000002ABAD00121B8E7264B274A68212748A6
:101BF00001F0F8F8264B274AF621244801F0F2F8C4
:101C0000002A0AD0197B8A4207D851008A18033A61
:101C100019688C4662445470A4E71A4B1A4A68212A
:101C20001A4801F0DFF81C4B1A4AFB21174801F053
:101C3000D9F80A4B0F4A41210A4801F0D3F80BB0FA
:101C4000F0BCBB46B246A946A046F0BD943B00207E
:101C500008EF0010CCF2001024EF001094F00010F8
:101C600000F3001050F0001080F10010E4F20010BA
:101C700098F1001024F30010FFFFFF0FA4F10010F3
:101C8000FFFFFF7FB8F000106CF30010D4F00010DD
:101C9000E0F1001038F3001004F2001010B50C4B06
:101CA0005B68002B04D00A210A48FFF781FC10BDB5
:101CB000074C2300084A1021206800F051FC032043
:101CC00000F09CFA03212000FFF7ACFCEBE7C046D4
:101CD000341D00204C4000208D16001010B5064B1E
:101CE0005B68002B01D0044810BD044B044A5E2100
:101CF000044801F077F8C046341D002018F20010A7
:101D00000CF3001050F00010F0B5DE4657464E467A
:101D10004546E0B58BB0804616001F00149B9A46DE
:101D2000159B994616AB1B789B461F2302AA944627
:101D3000634400221A702BE0002809D04246126842
:101D4000127B904204D8421E4146C9688A5C41E039
:101D5000404B414A4121414801F044F807984CE08A
:101D6000361BAF41002F07DB002F11DA3C4B3D4AF9
:101D70003F213D4801F036F8012676423B4FF3E71C
:101D8000374B384A3F21384801F02CF8002F4FDB01
:101D900043465A68EFF3108472B6136859424B41B8
:101DA000D9B20791002BF8D1BFF35F8F1F3302AA7E
:101DB0009446634404930023039302934B46019398
:101DC0005346009332003B004046FFF70FFD031ED1
:101DD000B2D1020041464968BFF35F8F00250D6014
:101DE00084F31088002B29D01F2302A98C4663445A
:101DF0001B78002BB2D112021043002B20D05B467F
:101E0000002B1DD04946D04704000D0003000B43B2
:101E10001DD00029A4DB00F0FDF906000F1EAFDB8A
:101E200036196F41002FB1DA012676420F4FADE728
:101E30000B4B0C4A3F210C4800F0D4FF01204042DC
:101E40000BB0F0BCBB46B246A946A046F0BD079811
:101E5000F6E7C04694F0001024F3001050F0001094
:101E600008EF0010CCF2001024EF0010FFFFFF7FFE
:101E7000F8B504004268EFF3108572B61368584253
:101E80004341D8B2002BF9D1BFF35F8FCBB22268A8
:101E9000567BB3421BD10120002848D020698842DC
:101EA0002BD0090AC9B2002B2ED02068007B8342B8
:101EB0002AD8581EE668305C88422BD00020636820
:101EC000BFF35F8F00221A6085F31088F8BD002BE6
:101ED0000DD0167BB3420AD85E00F618033E176891
:101EE000BC466644B678002ED6D00120D4E7134B0A
:101EF000134A6821134800F075FF9521124B134ACD
:101F00004900134800F06EFF124B134A412110485C
:101F100000F068FF1900100000F01CFC0028CED172
:101F200032210E4B094AFF31094800F05BFF23695B
:101F30008B42C4D100232361C1E7C046B8F0001032
:101F40006CF30010D4F000103CF20010B4F200105A
:101F500050F0001094F0001024F3001060F2001014
:101F6000407D7047F0B587B006000F00EFF30583A2
:101F7000002B1FD196246442E517A4197D418D42A0
:101F800002D803D1844201D900240025002D14DB9E
:101F90000494059500F03EF902000B1E13DBA41A11
:101FA0009D41002D17DC14D03000390000F03EF9BF
:101FB00007B0F0BD204800F0AFFF204B204A3F2182
:101FC000204800F00FFF1D4B1D4A3F211D4800F027
:101FD00009FF002CE8D0FFF781FE00230293019354
:101FE000194B0093049A059BFFF78EFE002812DA26
:101FF000DAE7002300E00023002BD5D1134B1A6849
:10200000EFF3108172B61368002BFCD0BFF35F8F23
:102010000E4809F0ABF90499059A0D4B5B6A9A4298
:10202000E9D80B48806A884203D29A42E1D0012362
:10203000E2E70123E0E7C04664F2001008EF001079
:10204000CCF2001024EF0010651600104C40002068
:102050000040054070B504000D0000F0DBF8020000
:102060000B1E0ADB200029008018594100290ADBD9
:1020700000290CDBFFF776FF70BD084B084A3F21B3
:10208000084800F0AFFE012040420749F0E7034B4B
:10209000034A3F21034800F0A5FEC04608EF0010A8
:1020A000CCF2001024EF0010FFFFFF7F10B5FA22E2
:1020B00092000023002102F06FFDFFF7CBFF10BD5F
:1020C00070B584B005000C00EFF30583002B1ED122
:1020D000FFF704FE002302930193224B00932A0092
:1020E0002300FFF711FE061E23DD20BFFFF7F6FDDC
:1020F0003100FFF7BDFE1C4B5B6A9C422DD81A4A8B
:10210000926AAA422CD29C4225D0012026E0164B8E
:102110005B6A994209D8144A926A824207D299426C
:1021200001D001201AE0002018E0002016E0012074
:1021300014E00D4B5B6A9C4209D80B4A926AAA4292
:1021400007D29C4201D0012008E0002006E00020D8
:1021500004E0012002E0002000E0002004B070BD97
:102160000120FBE7651600100040054070B5EFF355
:1021700005801038EFF3108C72B61A4B1B68002BD9
:10218000FBD0BFF35F8F01221300834016494B63DE
:1021900016490B60164909780C00C440224214D03D
:1021A000114A546A8200134D5259944206D3820058
:1021B000114C125999430E4B197007E00A4A031D3E
:1021C0009B0099589950002200E00022BFF35F8FD6
:1021D000044B002119608CF31088002A00D090472E
:1021E00070BDC046280100D0004005403C7005404D
:1021F0000241022058400020AC2C002010B5010004
:10220000024A0348FEF7C0FD10BDC04698F3001017
:10221000FB400220044B5B6A034A906A1900536A30
:102220009942F9D17047C04600400540084B5B6AAF
:1022300001E0074B5B6A8B42FBD301E0044B5B6A16
:102240008B4203D1024B9B6A8342F7D37047C0464F
:102250000040054070B504000D00EFF3108672B623
:102260001B4B1B68002BFBD0BFF35F8F002D1CD0D6
:102270002000FEF7A1FE174B83420BD0190020006F
:10228000FEF7B4FE01212000FEF786FE0123A340E5
:10229000114A1360A400114BE550BFF35F8F0C4B44
:1022A00000221A6086F3108870BDA2000B4B00213B
:1022B000D1500122A2400A490B7893430B70054983
:1022C0002000FEF7D7FF00212000FEF765FEE4E7BF
:1022D000280100D06D21001038600540AC2C002092
:1022E00002410220F0B5DE4600B584B004001500BE
:1022F00001921E000293FFF78DFF03958E4202D8D4
:102300004ED185424CD9EFF3108B72B6274B1B6828
:10231000002BFBD0BFF35F8F254A17780125A5401E
:10232000EBB23B431370234B5D63221D9200019976
:10233000D150A2002049029850501B6A2B4212D162
:102340001C4B1B6C2B4208D00020BFF35F8F174B38
:1023500000221A608BF3108823E0184B184AC5211D
:10236000184800F03FFDFFF755FF8E4214D802D108
:10237000039B834210D80E4B1B78BB420ED00D4BF3
:102380001D625D631F2004400123A3400E4A1360B9
:10239000074B1F701E38D8E70020D6E70120D4E78E
:1023A000012004B080BCBB46F0BDC046280100D06F
:1023B000024102200040054058400020BCF30010BC
:1023C0002CF40010E0F3001080E200E0EFF3108C3A
:1023D00072B60B4B1B68002BFBD0BFF35F8F012342
:1023E0008340084A136208490A789A430A70BFF387
:1023F0005F8F034B00221A608CF310887047C04631
:10240000280100D0004005400241022010B50029FB
:102410001ED0037B99421BD84B005B18033B04681A
:10242000A4466344002919D0002A1DD0914221D02E
:10243000002A25D0047BA24222D8046850008018CC
:10244000033820188170197800291FD11A7010BD27
:10245000104B114A6821114800F0C4FC104B114A7E
:102460006F310E4800F0BEFC0F4B0E4A70210B4836
:1024700000F0B8FC0D4B0B4A7121084800F0B2FC8B
:10248000044B054A6821054800F0ACFC41701A7005
:10249000DDE7C046B8F0001040F50010D4F00010A1
:1024A00028F100102CF5001034F1001040F100105C
:1024B00070B506000D001400002914D0002A14D0B5
:1024C000806873689847002806D0220029003000F1
:1024D000FFF79CFF280007E02A0021003000FFF7EB
:1024E00095FF200000E0100070BD0800FCE7000030
:1024F00010B50023437301338373037BC37301233C
:10250000027B9A4214D9002B0CD0027B934209D84B
:102510005A00D218033A01688C4662440133DBB298
:102520005370EDE70B4B0C4A68210C4800F05AFC45
:10253000002A09D0924207D8016853009A18033A3A
:102540008A180023537010BD024B034A68210348C8
:1025500000F048FCB8F0001040F50010D4F0001076
:1025600010B5017342608360FFF7C2FF10BD000029
:1025700070B50400081E00D170BD002934D0237B43
:10258000994231D84B005B18033B22689446634460
:102590005A78002AF0D02DD0237B9A422AD85300B3
:1025A0009B18033B21688C4663445D780021597079
:1025B000002825D0237B984222D843001B18033BD8
:1025C00021688C4663440021597001002000FFF708
:1025D0006FFF060029002000FFF7CAFF020031004C
:1025E0002000FFF765FFC7E7084B094A6821094843
:1025F00000F0F8FB054B064A6821064800F0F2FBA4
:10260000024B034A6821034800F0ECFBB8F00010CD
:1026100040F50010D4F0001070B505000C00160055
:1026200000292FD034D0037B994231D84B005B185E
:10263000033B0268944663445A78002A2ED19A7864
:10264000002A31D11978FFF793FF0300002E0AD03A
:10265000EA7B002A2ED1AA7B002A03D1EA7B002A3A
:102660003BD1AC73EC73002B3DD1002C4FD02B7BB6
:102670009C424CD82B6861000C19033C1C190023A8
:10268000637070BD254B264A3821264800F0AAFB0E
:10269000254B264A6821264800F0A4FB254B204AFA
:1026A0003A21204800F09EFB234B1D4A3B211D4848
:1026B00000F098FB002A0AD0297B8A4207D85100F3
:1026C0008A18033A29688C4662445470C3E7164B53
:1026D000164A6821164800F085FB184B104A422123
:1026E000104800F07FFB002B0BD02A7B934208D8C8
:1026F00043001B18033B2A689446634400229A70E7
:10270000B3E7094B094A6821094800F06BFB064B07
:10271000064A6821064800F065FBC04648F40010F0
:1027200018F5001050F40010B8F0001040F500103B
:10273000D4F0001094F40010BCF4001004F2001067
:1027400070B504000A00457B2900FFF765FF607340
:10275000280070BD70B50400002967D0437B8B4210
:102760000ED0002911D0037B99420ED84B005B1884
:10277000033B0268D0188378002B0CD1002056E070
:102780000121FFF7DDFF012051E0294B294A682193
:10279000294800F027FB002B20D0227B93421DD834
:1027A0005A00D318033B2268D2182568EB5C8B4291
:1027B0001AD0002B1BD0227B934218D85A00D31872
:1027C000033B2268D21853788B4216D0002BF0D1ED
:1027D0001A4B1B4A6B211B4800F004FB144B154A93
:1027E0006821154800F0FEFA4378137007E0104B9B
:1027F000104A6821104800F0F5FA4378537000231E
:102800008370437001222000FFF706FF0200617B06
:10281000814205D02000FFF74BFE6073012006E0E7
:10282000094B074A7121074800F0DCFA002070BD0F
:10283000B8F0001040F50010D4F00010ECED0010DE
:1028400000F5001050F40010E0F4001070B5040022
:102850000D00062000F07EF9C000290001F07CFC8C
:10286000C60908D00E4B9E4217D87F23184001306E
:102870003500460800E001256562A6622C34802000
:102880008001044300232360062000F063F98000E8
:10289000A901891901F060FC70BD0026014DEBE72C
:1028A000FEFF0000FFFF0000002909D00A22064BAE
:1028B0009C466044434258414000044BC25270471A
:1028C00080225200F3E7C0460080FCBF6840002031
:1028D00070B505000C00062000F03CF9002829D056
:1028E000164B9D4227D08022D203154B1A60154B00
:1028F0001A60154B9B6811009943FAD100212800FA
:10290000FFF7D2FF21002800FFF7A0FF2C002C3496
:10291000E96A60224A406E2111408022520122431E
:1029200011600A4B2B6380239B01234310221A6002
:102930000323AB6470BD80221204D6E700800340FD
:1029400000E0004000F0004000C000400103000033
:10295000F8B5DE4657464E464546E0B505000F0041
:1029600092460A9A93424ED31A0E91461E020A9A32
:1029700000233000494601F02DFC80466C006419AC
:10298000A4002F4B9C4664446368834200D260607D
:102990002B1FDBB29B46012B3BD9C0239B0123435A
:1029A000802212011A60AB00264A9958002905D0EE
:1029B000506901F0D1FB01300138FDD153465A0175
:1029C00023685A40E0231A4080235B0123431A60A6
:1029D0005A46012A28D980239B01234380221201D1
:1029E0001A6043466360424600233000494601F0C6
:1029F000F1FBAD00134B58510120F0BCBB46B24671
:102A0000A946A046F8BD104B104A2D21104800F0F1
:102A1000E9F9012FC1D1C0239B01234303221A608E
:102A2000A368DB07FCD5C9E72168794003220A4087
:102A30001A60A2680123BB401342FAD0CBE7C0461C
:102A400000800040F82D00204CF50010B0F500107B
:102A500060F5001030B583B00C2000F017F9FEF7D8
:102A600073F900280DD0002304E099002D4A2E4868
:102A700088500133092BF8D92A4B2C4A5A6203B0EB
:102A800030BD2B4B00229A6700F072F9294B0122CE
:102A90001A60274B5B6C012BFBD1274B03221A607A
:102AA000234B9B6B012BFBD1013300930433234A4F
:102AB0000121234800F054F805230093214A012105
:102AC000214800F04DF8214B009300220221042000
:102AD000FFF73EFF1E4D00952B000022012105202F
:102AE000FFF736FF104C009423000022002107203E
:102AF000FFF72EFF00942300002200210820FFF79B
:102B000027FF0A4B00932300002200210920FFF732
:102B10001FFF00952B00002200210620FFF718FF61
:102B2000ADE7C046F82D0020006CDC021BB70000AA
:102B3000008000403CB0004030B00040002F685999
:102B400000800240008C864700C00240001BB70096
:102B5000405973078000014BC0587047F82D002082
:102B6000F0B5C64600B504000D00170098460C20CD
:102B700001F0F2FA0600394BFA18394B9A4241D863
:102B800043011B1A9901C91AC900091889013800A3
:102B900001F0E2FA0200103A98235B009A4237D81B
:102BA0004346013B062B39D8069B013B062B35D803
:102BB0003F09B74238D343461E04069B1A03164307
:102BC0002368002B36DB274B9C4244D080225201E5
:102BD000254B1A60254B1A60254B9B6811009943C1
:102BE000FAD12560A060231DC02292011A4321233F
:102BF00013602368002BFCDAE6600823136080BCB6
:102C0000B846F0BD1B4B1C4A11211C4800F0EAF8E5
:102C10001B4B194A1921194800F0E4F8194B164AC0
:102C20001C21164800F0DEF8174B134A23211348E5
:102C300000F0D8F822683F231340AB42C3D1A36809
:102C40001B051B0D8342BED1E368EE22D202134066
:102C5000B342B8D1D3E780229201B9E780E84BD3E1
:102C600080F8A93200C0024000E0004000F00040BF
:102C700000C00040C0F50010ECF6001020F6001077
:102C800068F6001084F60010D0F6001080239B0038
:102C90000343014AD362704700800540024B1A6823
:102CA000024B5A607047C046843B002000800540BC
:102CB00010B50200164B8020C0051860154B164851
:102CC000186000290AD0154BE021C9041960002AB8
:102CD00009D1124B802212061A6010BD0C4BE02164
:102CE000C9041960F3E753019B1A9800801800018A
:102CF0000B4B186080235B04984202D3084B094AAF
:102D00001A60FFF7CBFF054B8022D2051A60E4E77B
:102D100000B0054008200140FCFF010000A0054074
:102D2000843B0020FFFFFF0010B5030010000C4A99
:102D30008024E4051460002B0DD001221343094ABE
:102D4000094CD461094C5C401462516293620021C9
:102D5000FFF7AEFF10BD034B0022DA61F7E7C04674
:102D600000B0054000800540D3C007B02D3FF84FAC
:102D7000064BAA2212011A602F22DA60044B054A80
:102D80001A60024B5B68002BFBDA70470040024080
:102D90000060024000B0FA0000BEFDE703000A4AEE
:102DA0001268002A08D0084A1068C318074A9A42D5
:102DB00006D3054A13607047034A05491160F2E7DC
:102DC00001204042F7E7C046803700200000042081
:102DD000044102200020704701204042704710B596
:102DE000FFF7DAFF10B582B00C001900002A0CD0F2
:102DF000084B002A0BD001920093230002000648E2
:102E000002F064F90120FFF7C7FF044BF1E7034A22
:102E1000F1E7C046F8F6001008F70010240A011088
:102E200070B52B4B2B4A1A602B4B2C4A1A602C4B3B
:102E30009A682A4B9343FAD12A4C01E008CC984770
:102E4000294B9C42FAD3FFF705FE234B274A1A6011
:102E5000234B9B68DB43DB01FAD1254B40229A6769
:102E60005A671A67DA66234C09E0234B234A862106
:102E70002348FFF7B7FF2000FEF7A2FB0834214BE1
:102E80009C4209D22368002BF5D0012BEDD1200004
:102E9000FEF7A4FB0C34F2E71B4CA1681B4DC022CB
:102EA000280001F0AFFFA560EFF30583002B00D0F1
:102EB00000BEFDF7CBFFFEF73FFBFEF7EFFE144C25
:102EC00001E008CC9847134B9C42FAD370BDC04632
:102ED00000E00040BFCDFBFE00F00040FE7F3C0064
:102EE00000C000406826002078260020FFFFFF0178
:102EF00000F001405826002038F70010C4F70010F9
:102F000058F700106826002000ED00E000000020C7
:102F100078260020882600200FB400B583B008482A
:102F200002F0A4F8049B002B07D005A9019118001A
:102F300002F0ACF8034802F099F80120FFF72CFFEB
:102F4000A4F700106C06011010B50148FFF7E4FF6C
:102F5000B4F70010704710B5002802D00B6849681C
:102F6000984710BD0100002007E083001B185B009C
:102F7000501C08601078C01830380A681378303B4D
:102F8000DBB2092BF1D97047F0B5DE4657464E4605
:102F90004546E0B583B093461F000C9B9A460D9CB6
:102FA0000E9B99460F9B9B0703D0B8460F00060067
:102FB00022E00192A34688464E46B9460700B44235
:102FC00007D2551C4B4641462020B84701342A0001
:102FD000F5E73D004F465C46019B9B46B1464646A1
:102FE000B84637002E0007E0013C551C5346185DDB
:102FF00043463900B0472A00002CF5D135003E0089
:1030000047460F9B9B0707D4100003B0F0BCBB469C
:10301000B246A946A046F0BDB0464E46B9462F007E
:103020005D46531BB342EFD2541C4B464146202011
:10303000B8472200F5E7F0B5CE46474680B585B0E3
:10304000944698460C9D0D9C0EAB1B789946109AA1
:10305000119B129EB7071CD4002B0CD0F7070AD582
:103060004F46002F02D10C37374204D0013B02E01B
:1030700030272F550134944201D21F2CF8D9F7077D
:1030800007D59C4205D21F2C03D830272F55013479
:10309000F5E7F70615D5770505D4002C03D0944243
:1030A00024D09C4222D00F9A102A2BD00F9A102A9B
:1030B00030D00F9A022A35D01F2C02D830222A5540
:1030C00001341F2C05D84A46002A31D02D222A551A
:1030D0000134039602930194009543466246FFF73C
:1030E00053FF05B0C0BCB946B046F0BD621E012C0E
:1030F00006D00F9F102F01D01400D4E7023CD2E776
:103100001400D0E7B206D1D41F2CCFD878222A558C
:103110000134D1E7B206CCD51F2CCAD858222A5583
:103120000134C9E71F2CC7D860322A550134C3E7E0
:10313000720703D52B222A550134CAE73207C8D5B6
:1031400020222A550134C4E7F0B5DE4657464E46E4
:103150004546E0B593B081468A46089209931CAB78
:1031600010CB1B789B461E9D219B9846002C03D1BB
:10317000102342469A4390468023DB0046461E4079
:1031800042461A4212D0002C22D000260EE03033E4
:10319000D9B2771C0AAB99552900200000F0DCFF5A
:1031A000AC4216D31F2F14D83E0004002900200083
:1031B00000F0D2FFCBB2092BE9D94246920605D5E1
:1031C0004121C918C9B20A39C9B2E2E76121F8E759
:1031D000270043460693209B05931F9B049303956A
:1031E0005B46029301970AAB0093099B089A5146EC
:1031F0004846FFF720FF13B0F0BCBB46B246A946D5
:10320000A046F0BDF0B5DE4657464E464546E0B511
:1032100095B0089009910A920B931E9E1F9C20ABBB
:103220001B789B46229B9946239D269B9A463300FA
:10323000234303D1103352469A4392468023DB0046
:1032400057461F4052461A4219D0330023432DD00F
:10325000002714E03033DAB27B1C98460CABDA5509
:103260004A462B003000210000F0B4FFA5421FD8D1
:1032700019D043461F2B1BD8474606000C004A4670
:103280002B003000210000F0A5FFD3B2092BE1D9BB
:103290005246920605D54122D218D2B20A3AD2B28B
:1032A000DAE76122F8E7B145E3D901E00023984667
:1032B00053460693259B0593249B04934B46039307
:1032C0005B460293434601930CAB00930B9B0A9A17
:1032D00009990898FFF7AFFE15B0F0BCBB46B2469F
:1032E000A946A046F0BD0000F0B5DE4657464E4662
:1032F0004546E0B591B083468A460C9298461A9CA2
:1033000008941B9D099522002B002000290001F044
:10331000DCF9002800D0E5E001225242D74B200022
:10332000290001F0CDF9002800D0DBE00122524253
:10333000D34B2000290001F0ADF9002800D0D1E0E6
:1033400000220023089E3000099D290001F0A2F907
:10335000002800D0DDE008980999069007918023A5
:10336000DB001E9A1A400D921E9A1A4201D10623C2
:103370001C930698079904000D000A0006000243FA
:1033800000D1D1E0080D4005400DBE4CA44660447C
:103390000A03120BBC4B13431F0001F0A9F9BB4AEF
:1033A000BB4B01F038F9BB4ABB4B01F015F90400E7
:1033B0000D000022B94B3000390001F008F9B84A7D
:1033C000B84B01F028F902000B002000290001F0A1
:1033D00003F901F0A5F9814601F08AF904000D0016
:1033E000B14AB24B01F017F90022B14B01F0F4F8E9
:1033F00001F096F90600AF4AAF4B2000290001F01A
:103400000AF904000D00300001F072F9AB4AAC4B30
:1034100001F001F902000B002000290001F0D7F8AB
:1034200004000D0002000B0001F0F5F80A900B916A
:10343000A44BF31800261F0522002B0020002900B2
:1034400001F0CAF80E900F9122002B00002080217D
:10345000C90501F0BCF804000D0000229A4B0A983F
:103460000B9901F0BEF80022984B01F0B5F802006C
:103470000B000A980B9901F0B4F80022944B01F06C
:10348000ABF802000B000A980B9901F0AAF80200B1
:103490000B002000290001F09FF802000B000E989D
:1034A0000F9901F09EF80022774B01F095F8320059
:1034B0003B0001F0B0F806000F0004000D00069A72
:1034C000079B01F0FDF8002830D001235B429C46A9
:1034D000E14400227D4B3000390001F082F8040005
:1034E0000D0023E01E9B04931D9B03931C9B0293E2
:1034F000089A099B0092019343460C9A51465846FC
:1035000000F0FCF811B0F0BCBB46B246A946A0469C
:10351000F0BD0023002406930794069680231B0623
:103520009C46654407951AE7002399464B4663334A
:10353000C62B1ED804261E9B1B0526D52B00234315
:103540000FD0644A644B0698079901F0B1F800283F
:1035500079D00022614B0698079901F09BF800286A
:1035600071D01C9B4B4506DD4A46981A431E1C939E
:1035700003E00526DFE700231C938023DB001E9A6F
:103580001A431E920026002399461D9B9E4264D238
:103590009F1B02231E9A1A400A921E9A134202D0BF
:1035A000002E00D000274B46002B07D022002B0016
:1035B0000698079901F015F806900791002200235C
:1035C0000898099901F066F8002848D1444B1E9AE2
:1035D0001340049303971C9B0293069B079C009344
:1035E000019443460C9A5146584600F087F8002E45
:1035F00000D187E71E9B9B063DD54525441C4346CD
:10360000020051462800D8474B46DA179B18534012
:1036100005220592013E0496002203920A3202928C
:103620004A46D00F01900093434622005146584627
:10363000FFF78AFD0A9B002B00D163E702005F467B
:103640000C9E1D9D54E01C9B002B9ED00D9B002BBF
:103650009BD01C9B013B1C9397E7002799E7069C96
:10366000079D2200290080200006844661440B004B
:1036700006920793AAE76525C0E7C046FFFFEF7FE4
:10368000FFFFEFFF01FCFFFF0000F03FFB799F50C1
:103690001344D33FB3C8608B288AC63F0000F83F6D
:1036A00061436F63A787D23F71A379094F930A40A3
:1036B0000000E03F1655B5BBB16B0240EF39FAFE92
:1036C000422EE63FFF03000000002C400000244093
:1036D000000018402D431CEBE2361A3F80842E4137
:1036E000FFF7FFFF541C434651462020B8472200F5
:1036F000931BAB42F6D3100004E7C046F0B5DE469C
:1037000057464E464546E0B595B00690079193461C
:103710009946209F1E9A1F9B1000190000F0D5FFAC
:10372000002831D101225242BF4B1E981F9900F050
:10373000B1FF002837D101225242BC4B1E981F997D
:1037400000F0BEFF00283DD10022B94B1E981F9902
:1037500000F0B6FF002850D10022B64B1E981F99EA
:1037600000F098FF002848D1002200231E981F99DE
:1037700000F090FF002850D100239846229B5B0563
:1037800000D4B6E0002458E0229B0393219B0293CF
:1037900003230193A84B00934B465A46079906987A
:1037A000FFF7F2FB0EE1229B0393219B029304237C
:1037B0000193A24B00934B465A4607990698FFF790
:1037C000E3FBFFE00423229A1A4022990B4210D017
:1037D0009B4B002A0FD00422229903912199029138
:1037E000019200934B465A4607990698FFF7CCFB87
:1037F000E8E0944BEDE70322EEE7229B0493219B44
:10380000039302971E9B1F9C009301944B465A46BC
:1038100007990698FFF768FDD4E01E9A1F9B0020C9
:10382000002100F0D4FE1E901F9101239846A5E7C9
:103830000CAB30221A55013F01341F2C01D8092F3F
:10384000F6D81E981F9900F06BFF050000F050FF9E
:1038500002000B001E981F9900F0B9FEFA007A4B87
:103860009B181A685B680A920B9300F0D4FE0890CC
:10387000099100F079FF060000F036FF02000B000E
:103880000898099900F0A3FE0890099100226F4B57
:1038900000F016FF00282ED00136300000F024FF83
:1038A00002000B000A980B9900F0FAFE002801D0E4
:1038B00001350026002F2CD1280000F019FF02004E
:1038C0000B001E981F9900F082FE06000F000022D8
:1038D0005E4B00F0DFFE002846D100225B4B30003B
:1038E000390000F0EDFE00283ED1EB073CD5013554
:1038F0003AE0062746E70022544B0898099900F061
:10390000C9FE0028D6D1002E01D0F307D2D501364A
:10391000D0E7AA461F2C11D8013F0A21300000F041
:103920001BFC651C30310CAB19550A21300000F02E
:1039300013FC092E0ED906002C00EBE755461F2C70
:103940000CD87B1E002F09D00CAA302111551F0066
:103950000134F4E72B0055461C00F0E71F2C03D878
:103960000CAB2E221A5501341F2C10D80A21280026
:1039700000F0CAFB661C30310CAB19550A21280037
:1039800000F0C2FB051E01D03400EDE73400032334
:10399000229A1340012B1CD01F2C06D84346002B23
:1039A00032D00CAB2D221A550134229B0393219B5C
:1039B000029301940CAB00934B465A460799069824
:1039C000FFF7E2FA15B0F0BCBB46B246A946A046E6
:1039D000F0BD219B002B13D04346002B02D10C33AA
:1039E00013420FD0219B013B2193190003E00CAB44
:1039F00030221A5501348C42CED21F2CF7D9CBE796
:103A00002199F8E72199F6E7229B5B0704D50CABD7
:103A10002B221A550134C8E7229B1B07C5D50CABD6
:103A200020221A550134C0E7FFFFEFFFFFFFEF7FB1
:103A300065CDCD4165CDCDC1E0F70010E4F70010B4
:103A4000D8F70010D4F70010D0F900100000E03FC4
:103A5000F0B5DE4657464E464546E0B593B0824641
:103A60008B4690461193002900D1EBE20027554682
:103A7000119B1878002800D1E7E2252809D07C1C8A
:103A800043463A005946A847119B0133119327003A
:103A9000EEE7013311930024119A11780B00203BBB
:103AA000D8B2102803D88300D048C3589F460B00D3
:103AB000303BDBB2092B2CD92A292FD000230A93C3
:103AC000119B1A782E2A39D000239A46119A13781E
:103AD000683BD9B2122976D88B00C549CB589F468E
:103AE00001231C4301321192D6E702231C43013209
:103AF0001192D1E704231C4301321192CCE7082331
:103B00001C4301321192C7E710231C43013211926A
:103B1000C2E711A8FFF726FA0A90D1E71C9B1A1DED
:103B20001C921868002804DB0A90119B0133119342
:103B3000C6E702231C4343420A93F6E78022D200E1
:103B400014435A1C11925A781300303BDBB2092BF4
:103B500004D92A2A07D000239A46B7E711A8FFF70D
:103B600001FA8246B2E71C9B1A1D1C9218680028B5
:103B700004DB8246119B01331193A7E70020F8E78D
:103B800080235B002343511C119152786C2A01D091
:103B90001C0018E0C0239B001C430131119112E06E
:103BA00080232343511C11915278682A01D01C00B4
:103BB00009E0C0231C430131119104E080235B0024
:103BC0001C4301321192119B18780300253BDAB295
:103BD000532A00D92CE29300864AD3589F4680236B
:103BE0009B001C4301321192EDE780235B001C43D4
:103BF00001321192E7E7782809D0582838D06F2889
:103C000038D0622838D010239C430A2600E01026C2
:103C1000582833D0692803D0642801D00C2294435B
:103C2000630501D50122944369282AD0642828D04D
:103C3000A30500D59FE0E30500D5B8E0630600D4F6
:103C4000CAE01C9A111D1C911168FF220A400594BC
:103C50000A9B049353460393029600230193009218
:103C600043463A0059462800FFF76EFA070027E05E
:103C70001026CDE70826CBE70226C9E72022144309
:103C8000C8E7A30520D4E30550D4630666D51C9A83
:103C9000111D1C911168FF220A40D317D1185940F9
:103CA00005940A9B0493534603930296D20F019204
:103CB000009143463A0059462800FFF745FA0700AD
:103CC000119B01331193D3E61C9BDA1D07218A4314
:103CD000110008311C91116853689C46DB170C9346
:103CE0000D930C9A0D9B100048400E906246534075
:103CF0000F930E980F990C9A0D9B801A99410E9074
:103D00000F9108940A9B0793534606930496002349
:103D100005936346DA0F02920090019143463A0000
:103D200059462800FFF76EFA0700C9E71C9A111DD3
:103D30001C911268D317D118594005940A9B04931B
:103D4000534603930296D20F0192009143463A00E4
:103D500059462800FFF7F8F90700B1E7230605D513
:103D60001C9A111D1C910023D25E96E71C9A111D0E
:103D70001C91126891E71C9BDA1D07218A431100F0
:103D800008311C9108940A9B0793534606930496A6
:103D900000230593029313685468009301944346EB
:103DA0003A0059462800FFF72DFA070088E71C9AC9
:103DB000111D1C9105940A9B04935346039302968C
:103DC000002301931368009343463A0059462800A4
:103DD000FFF7BAF9070073E723060DD51C9A111DEA
:103DE0001C9112681204120C31E7C046ECF7001067
:103DF00030F800107CF800101C9A111D1C911268FC
:103E000025E746281AD01C9B0733072293431A0044
:103E100008321C9204940A9A0392524602925C68F9
:103E20001B680093019443463A0059462800FFF767
:103E300065FC0700119B0133119319E620231C43F5
:103E4000E1E7672801D0472802D180231B011C43EA
:103E5000452801D0472801D120231C431C9B073350
:103E6000072293431A0008321C9204940A9A039280
:103E7000524602925C681B680093019443463A00E4
:103E800059462800FFF730FA0700119B01331193C0
:103E9000EEE502231A002240924623421FD001245D
:103EA0001C9B1A1D1C927A1C9146187843463A00B6
:103EB0005946A8475346002B16D1119B0133119345
:103EC0004F46D5E5561C434659462020B8472300A7
:103ED00032005C1C9D42F5D83D001700E0E701234D
:103EE0003A002F000A9DF4E74A46A9460A9D06E0DB
:103EF000571C434659462020C84734003A00661CE8
:103F0000A542F5D84D469146D7E71C9B1A1D1C9239
:103F10001B6899465346002B00D1013B4E4601E0F9
:103F2000013613003278002A02D05A1E002BF7D136
:103F30004B46F21A10928023DB0026001E401C42E2
:103F400003D0524501D95346109302231A00224050
:103F50000B92234205D03A0037004C46A9465546FD
:103F600020E03A00109B5F46B3462E0006E0551C49
:103F7000434639002020B04723002A005C1C0A99E0
:103F80009942F4D835005E46BB46109437004C4643
:103F9000A946554606E01D000134561C43465946C5
:103FA000C84732002078002804D0002FF4D06B1EC0
:103FB000002DF0D117004D460B9B002B03D1119B18
:103FC0000133119354E50A9F109B06E0561C4346AB
:103FD00059462020A847230032005C1C9F42F5D898
:103FE0001700ECE721231C431C9B1A1D1C921B6825
:103FF00000930594082304935346039310230293DC
:104000000023019343463A0059462800FFF79CF8E5
:104010000700119B013311932AE57C1C43463A00AB
:1040200059462520A847119B0133119327001FE50E
:104030007C1C43463A005946A847119B0133119313
:10404000270015E50A4B9A4610E5AA46474502D3D4
:1040500043465A1E00E03A00434659460020D047E6
:10406000380013B0F0BCBB46B246A946A046F0BD2E
:10407000552F001000B585B00290039101210093E7
:1040800013004A4202A90248FFF7E2FC05B000BD56
:10409000572F001001480421014B1847601D0020D4
:1040A000D1400010014B9B6818470000601D0020A4
:1040B00010B5010018231B8814221088984710BDE2
:1040C00010B5010018231B8816221088984710BDD0
:1040D000F0B5C64600B507000E000025012398463E
:1040E00000E00135B5420AD2AC003C192068FFF768
:1040F000DFFF20600028F4D100239846F1E7404616
:1041000080BCB846F0BD0000124A936F9B0815D2E0
:104110009066D166002905D0FFE7FFE7FFE7516F02
:10412000106F704704B580210906C217514000285E
:1041300000D0C8430AF058FB002104BDF0B5146E4E
:10414000556E576F166FFFF7E3FF14665566576796
:104150001667F0BD000000D0114A936F9B0813D280
:1041600010665166002905D0FFE7FFE7FFE7516FB2
:10417000106F704704B5002801D00020C0430AF03A
:1041800033FB002104BDC046F0B5146E556E576F69
:10419000166FFFF7E5FF1466556657671667F0BDA3
:1041A000000000D094464A4A926F9208624601D2BB
:1041B00028E0C046F0B5464E346E756E776F366FA8
:1041C00000F020F89446424A146655665767166711
:1041D0006246F0BD94463E4A926F9208624601D212
:1041E00054E0C046F0B53A4E346E756E776F366F58
:1041F00000F04CF89446364A1466556657671667C1
:104200006246F0BD002B24DB11D000293EDA00B558
:10421000C943404200D1013100F038F8C94340425F
:1042200000D10131DB43524200D1013300BD002AED
:10423000EBD1002801D1002905D00020C90FC90702
:1042400001D1C043410800B50AF096FA00220023CC
:1042500000BD00B500290ADBDB43524200D1013327
:1042600000F014F8C943404200D1013100BDC943F8
:10427000404200D10131DB43524200D1013300F012
:1042800005F8DB43524200D1013300BD002923D1A0
:10429000002B18D1002A0CD0BC460D4F38667A6628
:1042A00000210023FFE7FFE7FFE77A6F386F6746DB
:1042B0007047002801D00748010000B50AF05CFAF9
:1042C0000022002300BD02000B00002000217047E7
:1042D000000000D0FFFFFFFF002B00D0BFE0130C59
:1042E00028D1002AE7D080B4114F39667A66FFE7FB
:1042F000FFE730B4040C7B6F396F1B0423433B662C
:104300007A66FFE7FFE7FFE7C04684B27B6F3D6F49
:104310001B0423433B667A66FFE7FFE7C0460023A2
:104320002C042D0C7A6F386F00196941B0BC7047AE
:10433000000000D0F0B594460025140E01D1120201
:104340000835140F01D112010435940F01D19200E8
:104350000235D40F01D152000135D40B0134254F61
:104360007C66254C3C660E0C93B2FFE7FFE7FFE747
:104370003C6F6643360C7703BE467343DF0B5B042A
:10438000C01AB941130C7343DB18C91ACE0866432F
:10439000360CB64493B273431F0F1B01C01AB941C8
:1043A000130C73431F0B1B05C01AB941860D8F02F6
:1043B0003E436643360C092D24DB520A7243801AB1
:1043C0007703460A6643360C16235B1BDE40DF404C
:1043D000BF1964466643821B7046043506330100EC
:1043E000D940A840C01900D30131A24206D200230F
:1043F000F0BD0000000000D0FFFFFFFF121B0130E6
:10440000F3D3F1E709277F1BFE406446A2B2724353
:10441000801A00D20139220C7243130C1204821A42
:1044200099410B007046043513370100F940A8404C
:10443000801900D30131002B02D1A2420AD2F0BD73
:10444000013000D30131121BFAD2013BF8D1A24254
:1044500000D2F0BD013000D30131121BF7E7F0B5F7
:104460001C0C00D080E00CB400251C0A04D11B02F7
:10447000160E3343120208351C0B04D11B01160F14
:104480003343120104359C0B04D19B00960F334338
:1044900092000235DC0B02D192185B4101351C0001
:1044A000971864410134464F7C66464C3C660E0CBE
:1044B000FFE7FFE7FFE7C0463C6F6643360C770334
:1044C000BE4697B27743C01B00D20139C01B00D251
:1044D00001399FB27743C91BC91B170C77437E0470
:1044E000FF0B801BB941CE086643360C0C2D33DB25
:1044F000B644120B1F053A431B0B97B27743C01B00
:1045000000D201399FB27743C91B170C77433E0491
:104510003F0C801BB941860D8F023E43664329271D
:104520007F1BFE400C3D7746AF40BF1930BCA2B2A6
:10453000ABB272437343801A9941220C7243130C3D
:104540001204801A994102000B000137001BA94197
:10455000F9D2781E0021F0BD0C277F1BFE40774664
:104560007F0BAF40FF19E0E700245D1C07D0144F1C
:104570007D663966FFE7FFE7FFE7FFE73C6F95B22F
:104580009EB265436643401BB141150C1E0C65434A
:10459000664336042F0C3E432D04401BB141994223
:1045A00004D202000B0020000021F0BD01D1904296
:1045B000F7D3801A994101349942F2D3F6E700000B
:1045C000000000D0FFFFFFFF48404140484018B4C2
:1045D000134B5B68019308BD18B4114B1B68019322
:1045E00008BD94460F4A926F920805D2624618B4ED
:1045F0000B4BDB68019308BD0A4AF0B5146E556E8B
:10460000576F166F6246FFF7F2FF064A146655664B
:1046100057671667F0BD18B4014B9B68019308BD3E
:10462000483E0020000000D0FFB5504042405040BE
:1046300059404B40594000E0FFB5154F4C00640D08
:1046400003D0BC4204D10C0314D80020090D090585
:104650005C00640D03D0BC4204D11C030AD80022C4
:104660001B0D1B0501264B4009D44B4003D58B4243
:1046700000D18242FFBD9942FCD19042FFBD0B4365
:10468000DB1803431343F5D0C9434918FFBD0000AD
:10469000FF07000000B5FFF7CFFF804100BDC04617
:1046A00000B5FFF7C9FF01D9002000BD012000BD02
:1046B00000B5FFF7B9FF01D9002000BD012000BD02
:1046C00000B5FFF7B1FF804100BD012040054A0061
:1046D000121804D85A00121801D80020704701207F
:1046E00070470020704700000021002805D1704766
:1046F000C1174840401AFAD0C90713B5064B1B68CA
:1047000098470CBC441CA2401005120B0349091B1E
:1047100009051943114310BD483F00201F04000044
:1047200010B54C00620D8023D218DB00D21A5B0555
:104730007E2A10DD9E3A13DACC1709034908194383
:104740005242D140640001341532202A05DAD040AB
:104750000843604310BD002010BD0846604310BDF3
:10476000C80FC018013810BD18B4024B5B6A019322
:1047700008BD0000483E002018B4024B1B6E019398
:1047800008BD0000483E002018B4024BDB6F0193C7
:1047900008BD0000483E0020024A034B00B500F06F
:1047A000D9F900BD182D4454FB2119408A0002D3C9
:1047B000920D092A04DA18B4044BDB6B019308BD8F
:1047C00000B5FFF7E9FF04BC9646F4E7483E002039
:1047D00010B50148FEF7A0FB20FA001070B51323B6
:1047E0001C78012C14D0012C14DC022C02DC1F4A92
:1047F0001F4B9A641F48FFF75BFC1F4B186070BD8E
:1048000099001E481A4A885001331F2BF8D9EAE74D
:104810000023FAE71A48FFF753FC05001948FFF791
:104820004FFC023803789B007F2B19DD8022290082
:104830000F4800F0E7FA022CD7D1134B1A88B523A2
:104840001B029A4209D1114B1A88114B9A4204D18A
:10485000104B1A88104B9A42C7D00020FEF75CFB21
:104860000E4B0F4A32210F48FEF7BCFA654B001081
:10487000483E00204C330000483F0020D147001044
:10488000534400005346000054380000D83800005C
:10489000494600009C3800005946000038FA0010D4
:1048A000ECFA001098FA0010F0B5DE4657464E4676
:1048B0004546E0B585B004000D00009201930E9BC3
:1048C0009A46002B45DD019B191101204042FFF75C
:1048D00043FC039000239B4629E00C239946AB112F
:1048E000039A53431D224946521A134101335B1068
:1048F0009846202252428B1821D422009A40170059
:1049000023004A4693401E004346D917009A019B54
:10491000404600F041F934003D00241A8D415B46C9
:104920004A46934043449B4653469B1A9A465346F5
:10493000002B11DD53460C2BCFDCD146CFE72023D3
:104940005B1A2200DA4013002A008A4017001F4336
:10495000D6E700230393BDE7009A019BAB4209DC35
:1049600001D1A24206D8009A019BA41A9D410123BD
:104970009C46E344009A019BAB4209DC01D1A24270
:1049800006D8009A019BA41A9D4101239C46E3444A
:10499000002D0FDB002D16DB0F9B002B01D05A469C
:1049A0001A602000290005B0F0BCBB46B246A946FB
:1049B000A046F0BD009A019BA4185D4101235B4213
:1049C0009C46E344E6E7009A019BA4185D4101235D
:1049D0005B429C46E344DFE7F0B5C64600B58AB0CB
:1049E00007900F0011001A00FE0F3B0D5B055B0DD9
:1049F0003D032D0B80246403049025430595D50FBA
:104A0000A846150D6D056D0D1203120B029114438E
:104A10000394109A002A02D0002210990A604A4A90
:104A2000934200D17DE0002D00D17DE0002B00D12C
:104A300082E0954200D182E06A1E9A4200DD80E069
:104A400044D0002E06D0049E059F00227142BA4138
:104A50000491059209AA01925B1B0093029A039BA1
:104A600004980599FFF720FF06000F0003000C00D3
:104A70009B197C412200029803998C420BDC01D1E6
:104A8000834208D802998B420CD1039B9A4209D1E8
:104A9000099BDB0706D5029B039CF61AA741099BDD
:104AA000013309934346002B02D0099B5B420993D3
:104AB000109B002B01D0099A1A60244A521B300027
:104AC0003900FFF759FE06000F002FE0039B059900
:104AD00099420FDD002E17D1029C039D24196D41D0
:104AE00004980599001BA94106000F0001230993B2
:104AF0001500D7E7029B039C0598A04202D10499B8
:104B00009942E7D8079E11E0029E039FB6197F41A4
:104B1000049B059CF61AA74101235B4209931500EB
:104B2000C0E700260A4F01E00026094F3000390097
:104B30000AB080BCB846F0BD00260027F6E7079E05
:104B4000F4E7079EF2E7C046FF07000033040000C9
:104B50000000F07F10B582B000240094FFF73CFF06
:104B600002B010BD07B56046002800D100BE018824
:104B70000A0A0230DF2AFAD1C9B2820804D30288B5
:104B800040880004104300E00068024A505003903F
:104B900007BD0000483E002051434343C9188C46DE
:104BA000110C83B24B4310B4040C614392B280B237
:104BB000504362431C041B0C001910BC59411304E0
:104BC000120CC018514161447047000048404140F8
:104BD00048400E4B5B6818470C4B1B6818470C4A43
:104BE000936F9B0802D2094BDB681847F0B5146E2F
:104BF000556E576F166FFFF7F6FF054A1466556638
:104C000057671667F0BD014B9B6818474C3F002063
:104C1000000000D007B548404140484001E0C04690
:104C200007B54200120E03D0FF2A03D1420218D862
:104C3000C00DC0054A00120E03D0FF2A03D14A025C
:104C40000FD8C90DC9050122414005D4414001D505
:104C5000814207BD884207BD0143491801D0C043C6
:104C6000001807BD00B5FFF7D5FF804100BD41002A
:104C70000A0E80231B067E2A0BDD9E3A0BDAC11733
:104C80004002400818435242D04049000131484395
:104C9000704700207047C00FC01801387047C042ED
:104CA0000CD300B540004008002100F00DF80028AA
:104CB00001D4404200BD8020000600BD014BDB69ED
:104CC000184700004C3F0020014B5B6A184700006A
:104CD0004C3F0020014BDB6F184700004C3F002089
:104CE000014B9B69184700004C3F0020014B9B6D16
:104CF000184700004C3F002010B50148FEF70CF9A2
:104D0000240A011070B513231E781848FFF7D8F94C
:104D10000500012E11D0012E09DDAB1E1B789B0072
:104D20007F2B1DDD80222900114800F06BF811480F
:104D3000FFF7BEF9104B186070BD542201000C48FB
:104D400000F060F8002300E001331F2BE3D89A0045
:104D5000074C1259002AF7D19A0008481051F3E77E
:104D6000074B084A42210848FEF73CF8534600002A
:104D70004C3F00204C330000483F0020F94C00100D
:104D800000FB001084FB001034FB001070B5040021
:104D90000A4E300009F0B0FD200008F01FFE0500AB
:104DA000300009F0D9FC002D05D02C19044B9C4291
:104DB00001D8280070BD0348FEF7AEF85826002041
:104DC0000000042098FB001070B50400054D280079
:104DD00009F092FD200008F00BFE280009F0BCFC51
:104DE00070BDC0465826002001480421014B1847D9
:104DF000701D0020D1400010014B1B6818470000B7
:104E0000701D0020014B5B6818470000701D0020DA
:104E100010B5FFF7BBFF10BD10B5FFF7D5FF10BDF4
:104E200010B5FFF7D1FF10BD10B503000800110049
:104E30001B68984710BD0000F8B507000D0016006C
:104E4000437D002B02D0002400200CE003681100F9
:104E5000280098472DE03B7D10E0022115483B6873
:104E60009847601C0134B44214DA002CF3DD2B198E
:104E7000013B1B780D3B5A425341DBB22A5D0A2AA3
:104E8000F0D1002BEED1A042E7DA211A28183B68B6
:104E90009847E2E7B04203DA311A28183B6898478E
:104EA000002E06DDAD19013D2B780D3B5A425341D2
:104EB0003B75F8BD2CFC001070B505000368002B95
:104EC00016D00C4B1C6805E0290004C92000FFF730
:104ED000B3FF2469002C09D02368002BF9D0064BBE
:104EE0001B68002BF0D0A342F3D1EDE700232B6029
:104EF00070BDC046743700207C37002070B50500B7
:104F00000C000B68802B05D021684B1C23606418B3
:104F1000257170BD0800FFF7CFFFF5E710B5FDF76D
:104F200079F902000B1E0BDB0D48002112184B41D2
:104F3000002B0BDB002B0DDB0A4809F09DFC10BD9C
:104F4000094B0A4A3F210A48FDF74CFF0122524211
:104F5000084BEFE7044B054A3F210548FDF742FFA8
:104F600040420F006026002008EF001014FC0010E3
:104F700024EF0010FFFFFF7F10B5024809F0ECFBA3
:104F800010BDC04660260020F0B5CE46474680B52D
:104F900083B006000D0090461C00FFF7BFFF81465E
:104FA0006B1C05D0002C08D0194F1A4B1C6807E069
:104FB000300009F01DFA0500F4E7174FF5E7246902
:104FC000002C17D02368002BF9D0144B1B68002B42
:104FD00001D0A342F3D12A0031002000B847434654
:104FE000002BECD06B46D91D0A230B700122200048
:104FF000B847E4E74B46002B07D16B1E9D41E8B252
:1050000003B0C0BCB946B046F0BDFFF7B5FFF4E74A
:10501000294E001074370020394E00107C370020D4
:10502000094A01E010331A001368002B08D08342AC
:10503000F8D1002907D1036913600023036102E05E
:10504000002900D0106070477437002010B5064B5F
:105050001C6801E098472469002C03D06368002B8A
:10506000F8D1F8E710BDC0467437002070B50500D0
:1050700009F0BEF904000023012201002800FFF717
:1050800083FFFFF7E3FF200070BD000070B5A2B002
:1050900004000E00FFF742FF0500002301933300D8
:1050A000220001A90848FEF7E5FF040001A8FFF768
:1050B00003FFFFF7CBFF002D02D1200022B070BD0F
:1050C000FFF75AFFF9E7C046FD4E00100FB400B5D8
:1050D00083B004A901C90191FFF7D8FF03B008BC50
:1050E00004B0184710B500F0FBF800F03FFA0120BB
:1050F00010BD0000F0B583B005000E0000240FE0E5
:105100006B46D91D0D230B700020002816D1936922
:105110009B06FCD40B78136001300131F5E70134B4
:10512000B44219DA0D4B1A682F5D0D4BD318594252
:105130004B415B000B495B5EBB42E1D06B46D91D26
:105140000F7000200028EAD193699B06FCD40B78ED
:10515000136001300131F5E703B0F0BD6C40002071
:105160000080FCBF68400020F0B583B006000F004F
:10517000002504E06B4607331B782B702500BD42E9
:1051800015DA174B1A6893691024210019401C4244
:105190000DD16C1C75196B46D81D0029EAD1936995
:1051A000DB06FCD41368037001310130F5E70D4BC9
:1051B0001B68002B0CD00A4B1A6850239363110014
:1051C0003431536B38221A4080235B010B431A6041
:1051D000002D02D0280003B0F0BD033DFAE7C04621
:1051E0006C400020E42D002010B5064B1B68002BFE
:1051F00006D0054A126800219163044A1068984756
:1052000010BDC046E42D00206C400020EC2D002095
:1052100070B504000E001C4B1B681C4A98184242D3
:10522000504114300500002C03D0194A1268002A9E
:1052300006D0002C19D0164B1C60164B1E6070BD9A
:105240001549FBF7D3FE01212800FBF7A5FE0E4B05
:105250001A685023936311003431536B38221A407B
:1052600080235B010B431A60E5E7094A1268002AB4
:10527000E1D000229A6300212800FBF78DFE064949
:105280002800FBF7F7FFD6E76C4000200080FCBF4A
:10529000E42D0020EC2D0020E951001070B50D0028
:1052A0001C000D4B1860002A0BDA002C0EDA0A4B9A
:1052B00018682900FDF70CFB01210848FFF7B0FE34
:1052C00070BD02211000FBF76FFCEEE70221200009
:1052D000FBF76AFCEBE7C0466C400020801D002015
:1052E00010B5064B1B78064B1B78E12101230022E9
:1052F00049020448FFF7D2FF10BDC04618960410BB
:105300001C9604100040034070470000014B00222F
:105310001A707047FE4002204B79FF2B0CD18B791D
:10532000002B0BD1CB79012B0AD1082A0AD98A7814
:10533000054B1A70092000E0002070470020FCE7B0
:105340000020FAE70020F8E7FE4002200120704725
:1053500070B504000D000348FEF7AAFE0300290003
:10536000200098475542000010B5012926D1117937
:1053700053791B020B43124909788B4201D000205C
:105380001DE05378012B03D0022B10D0002016E033
:105390009178D3781B021943DB0506D54B0A01200F
:1053A00098407F231940FFF7D3FF0020F9E76422DC
:1053B00000210020FDF7B8FC012000E0012010BD15
:1053C000FE400220012303700048704770FC00106B
:1053D00010B50B784878000218438A7812041043FD
:1053E000CB781B0603439622D200934200D010BD17
:1053F00000210800FFF7ACFF024B1860024B196058
:105400007047C046E82D0020F02D002010B5024B5B
:105410001878FBF7C9FD10BDFF40022070B5124B94
:105420001B68002B1BD0EFF3108272B6196800299D
:10543000FCD0BFF35F8F0C494A6000230B48037018
:105440000968BFF35F8F0B6082F31088002400258A
:10545000074B1878FBF7A8FD2000290070BDFA243F
:10546000A4000025F4E7C0468C3B00200041022048
:10547000FF40022010B584B000212C4809F0CCF97F
:10548000002838D12A4B1B68002B3CD0EFF3108248
:1054900072B619680029FCD0BFF35F8F24494A60B7
:1054A0002448037801246340DBB2012404700968B6
:1054B000BFF35F8F0020086082F31088002B22D09A
:1054C000FCF70CFC0400FCF7A5FE02000B1E1CDB25
:1054D000FA208000002112184B41002B1BDB002B0F
:1054E0001DDB01210291002101911349009120004F
:1054F000FCF70AFC07E001200021404201F000F91E
:105500000A4809F029F904B010BD0C4B0C4A3F21A0
:105510000C48FDF767FC012252420B4BDFE7074BBB
:10552000074A3F210748FDF75DFCC0465040002078
:105530008C3B0020004102201D54001008EF001099
:1055400008FD001024EF0010FFFFFF7F10B5054B92
:105550001868002804D0044B1968002200F0F6FDFA
:1055600010BDC046E82D0020F02D002010B584B0FD
:10557000D0231B061C68FCF7B1FBFCF7F1FCA04232
:105580002FD1D0231B061A78334B1A70334B1B785C
:1055900001F09CFD3248FCF713F80120FBF7E4FF13
:1055A000C0B2304C20703049FBF720FD207801213B
:1055B000FBF7F2FC0520FBF707FD041E17D00022C5
:1055C0002A490520FBF73CFDFBF750FC0100284869
:1055D000FCF714F801212748FFF722FD200004B052
:1055E00010BD254B254AB5212548FDF7FBFBFCF7EF
:1055F00075FB0400FCF70EFE02000B1E1BDBFA20FD
:105600008000002112184B41002B1ADB002B1CDB01
:1056100001210291002101911A4900912000FCF71B
:1056200073FBC443E40F082200211148FFF7E4FB99
:10563000002CD3D0CEE7144B144A3F211448FDF779
:10564000D1FB01225242134BE0E70F4B0F4A3F219F
:105650000F48FDF7C7FBC046014102202096041009
:1056600050400020FF400220755400100D540010DF
:105670008C3B0020981D0020B0ED0010F8FC0010BD
:1056800088FC00101D54001008EF001008FD0010E9
:1056900024EF0010FFFFFF7F10B5002001F036FA65
:1056A00010BD000070B505000C00FFF7F5FF0028E5
:1056B00045D0002001F04CFA002843D0FCF7AAFDA9
:1056C00002000B1E21DB2248002112184B41002B47
:1056D00021DB002B23DB1F4809F0CEF8002834D053
:1056E000FFF7DAFF002804D0002001F031FA00288B
:1056F0001BD101200021404201F002F80324644242
:10570000144809F029F8200070BD134B134A3F21BB
:105710001348FDF767FB01225242124BD9E70E4BAB
:105720000E4A3F210E48FDF75DFB220029000020B4
:1057300001F01AFA041EE3D103246442E0E70324D3
:105740006442E0E703246442DDE703246442DAE7CD
:1057500040420F005040002008EF001008FD0010EC
:1057600024EF0010FFFFFF7FF0B5C64600B580466E
:105770000C00FCF74FFD02000B1E0FDB3748002129
:1057800012184B41002B0FDB002B11DB344809F0C2
:1057900073F8002812D180BCB846F0BD314B324AB4
:1057A0003F213248FDF71EFB01225242304BEBE70E
:1057B0002C4B2D4A3F212D48FDF714FBFFF76CFFC2
:1057C000002849D12B4B0020002118605960244843
:1057D00008F0C2FFDFE701200021404200F090FF07
:1057E000002001F0D5F9FFF757FF0028EFD0002087
:1057F00001F046FA002820D0A542E8DA661B002016
:1058000001F03EFA0200864200DC3200002AE2D0BB
:1058100043465919002001F017FA06000120002123
:10582000404200F06DFF002001F0B2F9AD19FCF725
:10583000F1FC104B18605960DEE7FCF7EBFC0D4BF8
:105840001E685F680C4A002392197B419942BED8BA
:10585000D2D19042D0D9BAE70025CDE740420F001F
:105860005040002008EF001008FD001024EF001049
:10587000FFFFFF7FD827002020A1070000487047C6
:10588000A0FD0010004870474CFD001010B504004A
:10589000154B1B78002B0ED0002C11D1134B144A42
:1058A0005A80012301335B001BB2C02292001343D4
:1058B0000E48038010BD11210B4800F02DF8EBE7D6
:1058C000052C0ED8A4000B4BE4580023122BE9D86A
:1058D000E25C002AE6D00133590004484252DBB2B0
:1058E000F4E70020E6E7C046744002204C37002071
:1058F00009040000B4FD001010B5024800F03CF8A7
:1059000010BDC046403E002010B508220149FFF7F7
:1059100079FA10BD403E002010B5002901D00023C7
:105920000AE0114B114A1F311148FDF75BFA0024C0
:105930000DE03732C25401334A1E9A420FD90F2B61
:105940000DD85A080B4CA25CDC07F0D40424224189
:1059500014000F222240092AEBDC3032EAE7C0189B
:105960000023037010BDC046CCFD001024FE0010C3
:10597000D4FD0010403E002070B588B0040004AD96
:10598000002604960922002105A8FFF735FA0096A3
:105990000922002101A8FFF72FFA4B232B700D22BB
:1059A0006946280008F0D0FE002304E05A1D69462D
:1059B0008A5CE2540133072BF8DD08B070BD0000AB
:1059C00002007F201040D209400080184001014BA6
:1059D000C01870478437002010B5038B3F333F2237
:1059E0009343022915D0124C2268C260D318236059
:1059F0009C0610D10F4C6240634080246401A34296
:105A00000FD88906114380231B0619434368196088
:105A100010BD5B00E7E7084B084A54210848FDF732
:105A2000E1F9084B054A56210548FDF7DBF9C04668
:105A3000883B002000001050B8FF0010DC0001106F
:105A4000E8FF001048000110F8B505000E00140032
:105A5000FFF7B6FF7F232B40EF0985707A427A412A
:105A600042700022C2700683C476012F0DD0DA0086
:105A700012498C4662448260826800211160002BCA
:105A800009D143600E4BC360F8BDDA000D498C4666
:105A900062448260F0E7012F09D0013BDB000A4A33
:105AA0009446634443602100FFF796FFECE7013B17
:105AB000DB00064A944663444360F4E784001050D8
:105AC00000011050800010500C00105008001050C1
:105AD00070B50C001500FFF773FF2A00210000F0DD
